:100000000C949A010C94C2010C94C2010C94C2018C
:100010000C94C2010C94C2010C94C2010C94C20154
:100020000C94C2010C94C2010C94000A0C94CC08EC
:100030000C94C2010C94C2010C94C2010C94C20134
:100040000C94C2010C94C2010C94C2010C94C20124
:100050000C94C2010C94C2010C94C2010C94A10234
:100060000C94C2010C94C2010C94C2010C94C20104
:100070000C94C2010C94C2010C94C2010C94C201F4
:100080000C94C2010C94C2010C94C2010C94C201E4
:100090000C940A0F0C94C2010C94C2010C94C2017E
:1000A0000C94C2010C94C2010C94C201D801DB0172
:1000B000CE01D201FC01FC01FC01DF01E301E701FB
:1000C000ED01F101FC01F7012D31303133313631D1
:1000D000393147313C313F314231453105A84CCDB2
:1000E000B2D44EB93836A9020C50B9918688083C72
:1000F000A6AAAA2ABE000000803F00C18081C112CA
:10010000010002020000404123368000010102008C
:10011000011201000200000040412336800001016D
:100120000200011803410072006400750069006E4E
:10013000006F0020004C004C00430022034100727D
:10014000006400750069006E006F0020004C0065BF
:10015000006F006E006100720064006F000403090C
:100160000400000000000000002A2B28000000000E
:10017000000000000000000000000000000000007F
:10018000002C9EB4A0A1A2A434A6A7A5AE362D37FC
:1001900038271E1F20212223242526B333B62EB74D
:1001A000B89F8485868788898A8B8C8D8E8F909165
:1001B00092939495969798999A9B9C9D2F3130A3F2
:1001C000AD350405060708090A0B0C0D0E0F1011BA
:1001D00012131415161718191A1B1C1DAFB1B0B540
:1001E00000090402000103000000092101010001CF
:1001F0002265000705840340000105010902A101F1
:100200000901A1008501050919012903150025012E
:10021000950375018102950175058103050109307A
:10022000093109381581257F750895038106C0C0FD
:1002300005010906A1018502050719E029E7150056
:1002400025017501950881029501750881039506C0
:100250007508150025650507190029658100C00886
:100260000B0002020201000904000001020200006A
:1002700005240010010524010101042402060524BF
:100280000600010705810310004009040100020A6D
:10029000000000070502024000000705830240003D
:1002A00000070605040100080A0B0C0D09000000F8
:1002B0000200080E0000030401000B000000000013
:1002C000000000000000000000000004080201100F
:1002D000408040102040804080080204018040207F
:1002E00010020110801020404004040404040304A0
:1002F00005020202020403020202020606060606C4
:100300000604040202020400000000230026002963
:10031000002C002F0000000000250028002B002EDC
:1003200000310000000000240027002A002D0030CA
:100330000000A53111241FBECFEFDAE0DEBFCDBF34
:1003400012E0A0E0B1E0ECECFAE602C005900D92FC
:10035000AE3CB107D9F724E0AEECB2E001C01D928B
:10036000AA32B207E1F713E0C4E3D3E004C0229756
:10037000FE010E94E134C233D107C9F70E949D31CA
:100380000C9464350C94000090E0FC013197EE3041
:10039000F10590F5EA5AFF4F0C94DF34809180000C
:1003A0008F7703C0809180008F7D809380000895B7
:1003B00084B58F7702C084B58F7D84BD0895809108
:1003C00090008F7707C0809190008F7D03C080914F
:1003D0009000877F8093900008958091C0008F7770
:1003E00003C08091C0008F7D8093C00008958091EC
:1003F000C200877F8093C200089580911D04909170
:100400001E0420911F0430912004821B930B8F73D4
:100410009927089520911D0430911E0480911F0496
:10042000909120042817390749F0E0911F04F091BA
:100430002004E352FC4F808190E008958FEF9FEFFE
:10044000089520911D0430911E0480911F04909105
:10045000200428173907A9F0E0911F04F091200427
:10046000E352FC4F808120911F04309120042F5FC4
:100470003F4F2F7333273093200420931F0490E0C5
:1004800008958FEF9FEF0895A0E0B0E0EAE4F2E076
:100490000C9418356C017A01EB01E60EF71E00E0B2
:1004A00010E0CE15DF0561F06991D601ED91FC9168
:1004B0000190F081E02DC6010995080F191FF1CFB9
:1004C000C801CDB7DEB7E8E00C943435FF920F9346
:1004D0001F93CF93DF93EC01F62EE881F98104801E
:1004E000F581E02D09958C01E881F9810680F7817D
:1004F000E02D6F2DCE010995C8019927CDB7DEB744
:10050000E5E00C943735ECEBF0E080818F70806C87
:10051000808308956115710589F0DB010D9000203D
:10052000E9F7AD0141505109461B570BDC01ED9134
:10053000FC910280F381E02D0995089580E090E020
:1005400008951F920F920FB60F9211242F933F938D
:100550008F939F93AF93BF93809122049091230434
:10056000A0912404B09125043091210426E0230FAA
:100570002D3720F40296A11DB11D05C029E8230FD7
:100580000396A11DB11D2093210480932204909312
:100590002304A0932404B093250480912604909111
:1005A0002704A0912804B09129040196A11DB11D32
:1005B0008093260490932704A0932804B0932904E1
:1005C000BF91AF919F918F913F912F910F900FBE4F
:1005D0000F901F9018952FB7F89460912204709196
:1005E000230480912404909125042FBF08953FB7E0
:1005F000F8948091260490912704A0912804B0914A
:10060000290426B5A89B02C02F3F89F43FBF662767
:10061000782F892F9A2F620F711D811D911D43E044
:10062000660F771F881F991F4A95D1F70895019685
:10063000A11DB11DEBCFCF92DF92EF92FF92CF932E
:10064000DF936B017C010E94F702EB01C114D1041E
:10065000E104F10479F00E94F7026C1B7D0B683E07
:100660007340A0F381E0C81AD108E108F108C8512D
:10067000DC4FECCFDF91CF91FF90EF90DF90CF90E8
:100680000895789484B5826084BD84B5816084BD0A
:1006900085B5826085BD85B5816085BDEEE6F0E0FB
:1006A000808181608083E1E8F0E010828081826057
:1006B0008083808181608083E0E8F0E080818160D8
:1006C0008083E1E9F0E080818260808380818160C5
:1006D0008083E0E9F0E0808181608083E1ECF0E0FC
:1006E000808184608083808182608083808181605A
:1006F0008083E3ECF0E0808181608083E0ECF0E0D7
:10070000808182608083E2ECF0E080818160808380
:10071000EAE7F0E08081846080838081826080836A
:100720008081816080838081806880830895CF93F9
:10073000DF9390E0FC01E553FD4F2491FC01E7516C
:10074000FD4F8491882349F190E0880F991FFC01A7
:10075000ED5DFC4FA591B4918B5E9C4FFC01C59162
:10076000D4919FB7611108C0F8948C912095822391
:100770008C93888182230AC0623051F4F8948C9162
:10078000322F309583238C938881822B888304C0F9
:10079000F8948C91822B8C939FBFDF91CF91089519
:1007A000A1E0B0E0E6EDF3E00C941C35282F30E03A
:1007B000F901E355FD4F8491F901E553FD4F149183
:1007C000F901E751FD4F04910023C9F0882321F07E
:1007D00069830E94C4016981E02FF0E0EE0FFF1FE2
:1007E000EB5EFC4FA591B4919FB7F8948C91611189
:1007F00003C01095812301C0812B8C939FBF21964C
:10080000E4E00C9438350F931F93CF93DF93C82FF8
:1008100061E086E00E94D003E7E3F0E03197F1F772
:100820008C2F90E0B3E095958795BA95E1F7CFE1ED
:10083000D0E0C81BD90B00E010E00C171D075CF4DA
:1008400060E086E00E94D00361E086E00E94D00371
:100850000F5F1F4FF2CFDF91CF911F910F9108953E
:1008600061E087E00E94970361E087E00E94D00387
:100870000895CF93DF93282F30E0F901E355FD4F22
:100880008491F901E553FD4FD491F901E751FD4FF2
:10089000C491CC2391F081110E94C401EC2FF0E0AF
:1008A000EE0FFF1FE95FFC4FA591B4912C912D2312
:1008B00081E090E021F480E002C080E090E0DF91F0
:1008C000CF910895823108F08251E82FF0E0EF5582
:1008D000FD4FE49180917B00E3FB222720F930E07B
:1008E00095E0220F331F9A95E1F78F7D822B80933D
:1008F0007B00E7708091380120E4829FC0011124C1
:10090000E82BE0937C0080917A00806480937A00E9
:1009100080917A0086FDFCCF80917800209179004B
:1009200090E0922B08950E948A020895DC01ED91D7
:10093000FC910190F081E02D099508950F931F938C
:10094000CF93DF93EC016DE00E9496048C016AE086
:10095000CE010E949604800F911FDF91CF911F91CD
:100960000F9108950F931F93CF93DF93EC010E9493
:100970008A028C01CE010E949E04800F911FDF919C
:10098000CF911F910F910895A1E2B0E0EAECF4E05D
:100990000C9414357C01C42EE52FCB01D22E19A264
:1009A00021E02D1510F02AE0D22E8E010F5D1F4F91
:1009B0008D2C912CA12CB12C6C2D7E2FA501940196
:1009C0000E949E348C2DD29E801911240150110951
:1009D0008A3010F4805D01C0895CF80180832115A4
:1009E00031054105510521F0C22EE32FCA01E4CFA4
:1009F000B801C7010E948A02A196ECE00C94303540
:100A0000A0E0B0E0E6E0F5E00C941835EC016A01F6
:100A10007B012115310541F4E881F9810190F081D4
:100A2000E02D642F09951DC02A303105A9F477FF08
:100A300012C06DE20E9496048C0144275527BA012A
:100A40004C195D096E097F092AE0CE010E94C40499
:100A5000800F911F06C02AE0B701A601CE010E94B7
:100A6000C404CDB7DEB7E8E00C9434359A01AB018D
:100A7000662757FD6095762F0E94000508950F9315
:100A80001F93CF93DF93EC010E9400058C01CE01F0
:100A90000E949E04800F911FDF91CF911F910F91B3
:100AA00008952115310549F4DC01ED91FC91019087
:100AB000F081E02D642F099508950E94C4040895E3
:100AC0009A01462F50E060E070E00E9451050895C1
:100AD0000F931F93CF93DF93EC019A01462F50E0C1
:100AE00060E070E00E9451058C01CE010E949E04DE
:100AF000800F911FDF91CF911F910F910895FC01FD
:100B000091818081813A31F481E0913091F093308C
:100B100089F411C0813271F49B3021F48281809379
:100B20002F0105C09A3031F4828180932E0181E03B
:100B30000895089580E00895615030F02091F1000B
:100B4000FC0120830196F8CF289884E68093C003A7
:100B500008952FB7FC012083F89467706093E90033
:100B60000895A1E0B0E0E7EBF5E00C941E35682FA6
:100B7000CE0101960E94A9058091F20099819FBF44
:100B80002196E2E00C943A35A2E0B0E0EAECF5E020
:100B90000C941B35F62E8A019091BF03992311F016
:100BA00057FF03C08FEF9FEF2BC0682FCE01019638
:100BB0007A830E94A9058091F20090E0A8017A81D1
:100BC000801791070CF4AC01EF2DF72FF40E84E69B
:100BD000FE1639F028988093C0039091F10091930C
:100BE000F7CF4115510521F08091F200882321F0C3
:100BF00089818FBFCA0104C08BE68093E800F8CFDB
:100C00002296E5E00C943735A1E0B0E0EAE0F6E0AA
:100C10000C941E3541E050E0BE016F5F7F4F0E9493
:100C2000C405019719F4898190E002C08FEF9FEF0E
:100C30002196E2E00C943A35CF93DF93C0911D04E6
:100C4000D0911E042196CF73DD2780911F049091CF
:100C50002004C817D90799F082E00E9404068F3F4C
:100C60002FEF920761F0E0911D04F0911E04E35212
:100C7000FC4F8083D0931E04C0931D04DFCFDF910F
:100C8000CF910895A1E0B0E0E8E4F6E00C941E35C1
:100C9000682FCE0101960E94A9059091E800892F46
:100CA000807295FF04C09091F20080E4891B9981C5
:100CB0009FBF2196E2E00C943A35A1E0B0E0E3E674
:100CC000F6E00C941035582E7B01A42E952E8091C1
:100CD000BF03882369F0042F152F3AEFB32E852D1B
:100CE0008072782E4AE3842E852D8074682E11C080
:100CF0008FEF9FEF53C0852D0E944206482E811131
:100D00000CC0BA94A9F361E070E080E090E00E942A
:100D10001B030115110579F737C0282F30E00217A2
:100D200013070CF4402EC42CD12C0C191D09652D71
:100D3000CE0101960E94A905772039F04A948FEFE1
:100D40004816B1F01092F100F9CFF701842D57FE4B
:100D500007C0815058F094919093F1003196F9CFEB
:100D6000815020F091919093F100FACFEC0CFD1C92
:100D70008091E80085FF0FC00115110511F4611085
:100D80000AC089818FBFC5CF5D9884E68093C10377
:100D90008A2D992D03C08092E800F3CF2196E0E1DF
:100DA0000C942C35A1E0B0E0E8EDF6E00C941C3595
:100DB0008C01698380913701882359F041E050E02C
:100DC000BE016F5F7F4F83E00E945D061816190613
:100DD0003CF081E090E0F8019383828380E090E032
:100DE0002196E4E00C943835A1E0B0E0EAEFF6E0BB
:100DF0000C941A3589838B017A0141E050E0BE01E1
:100E00006F5F7F4F84E00E945D06A701B80184E414
:100E10000E945D062196E6E00C94363548E050E0ED
:100E200082E00E94F4060895CF93DF93DC016838D6
:100E300018F0E8E7E60F25C0E62FF0E067FF11C0E5
:100E4000E058F10981E090E001C0880FEA95EAF7E7
:100E500014969C911497982B14969C931497E0E009
:100E600010C0EF59FE4FE491EE2309F440C0E7FFB4
:100E700008C014968C911497826014968C931497E2
:100E8000EF7716968C9116978E1741F117968C91E5
:100E900017978E1719F118968C9118978E17F1F0F5
:100EA00019968C9119978E17C9F01A968C911A97EA
:100EB0008E17A1F01B968C911B978E1779F080E00E
:100EC00090E0ED01C80FD91F2E81211102C0EE83E1
:100ED00005C0019686309105A1F709C0BD016C5F80
:100EE0007F4FCD010E940E0781E090E008C081E0B5
:100EF00090E013969C938E93129780E090E0DF91A0
:100F0000CF910895683818F0E8E7E60F25C0E62F7E
:100F1000F0E067FF12C0E058F10921E030E001C0C5
:100F2000220FEA95EAF72095DC0114963C9114977C
:100F3000322314963C93E0E00FC0EF59FE4FE4914A
:100F4000EE2329F1E7FF08C0DC0114962C911497D9
:100F50002D7F14962C93EF7720E030E0EE2351F0B4
:100F6000DC01A20FB31F16964C9116974E1302C0C8
:100F700016961C922F5F3F4F2630310579F7BC0142
:100F80006C5F7F4F0E940E0781E090E0089580E043
:100F900090E00895FC011682178210861186128651
:100FA00013861482BC016C5F7F4F0E940E07089568
:100FB0001092E9001092BE031092BD039093BC03FF
:100FC0008093BB030895CF93DF93FB0120E030E0D3
:100FD000DEEF24173507A1F187FF02C0C49101C0DD
:100FE000C081A091BD03B091BE036091BB0370911D
:100FF000BC03A617B707B4F49091E8009570E1F32D
:101000009091E80092FD1EC0C093F1006091BD0375
:101010007091BE036F5F7F4F6F737727672B11F45B
:10102000D093E8006091BD037091BE036F5F7F4F66
:101030007093BE036093BD032F5F3F4F3196C9CFBE
:10104000C90102C08FEF9FEFDF91CF910895FC019E
:1010500020812E5F208342E450E06FE572E080E85B
:101060000E94E3070895FC0120812F5F208349E15E
:1010700050E061EE71E080E80E94E307089545E6E4
:1010800050E06AEF71E080E80E94E3070895A1E074
:10109000B0E0EDE4F8E00C941D35162F2091E80047
:1010A00022FFFCCF612F79830E949C058BEF8093F8
:1010B000E800812F7981972F2196E3E00C94393550
:1010C000FC0181819081913A59F4813209F04BC041
:1010D00047E050E060E371E080E00E94E30745C034
:1010E000913209F040C0803239F467E070E080E36B
:1010F00091E00E94470839C0823209F034C08281F1
:10110000809337018091300190913101A09132019B
:10111000B0913301803B9440A105B10531F5809138
:10112000370180FD12C087E797E79093010880930D
:1011300000082BE088E190E00FB6F894A895809322
:1011400060000FBE2093600010C088E10FB6F894D5
:1011500080936000109260000FBEA8951092010865
:101160001092000802C080E0089581E00895A1E097
:10117000B0E0EDEBF8E00C941E351982CE0101963B
:101180000E942708CE0101960E943308898190E0D1
:101190002196E2E00C943A351F920F920FB60F920F
:1011A0001124EF92FF920F931F932F933F934F932E
:1011B0005F936F937F938F939F93AF93BF93EF93BF
:1011C000FF93CF93DF93CDB7DEB76297DEBFCDBF7E
:1011D0001092E9008091E80083FFE7C068E0CE014B
:1011E0000A960E949C0582EF8093E8009A8597FFFB
:1011F00005C08091E80080FFFCCF03C08EEF809394
:10120000E800892F807609F0B5C08B85811105C073
:101210001092F1001092F100C1C0282F2D7F2130D3
:1012200009F4BCC0853049F48091E80080FFFCCF10
:101230008C8580688093E300B1C0863009F072C06D
:101240002D85E888F988223071F580E090E02A8BBE
:101250000E94D8070E94B70899E08E010F5F1F4FC8
:10126000F801392F11923A95E9F799832A892A834F
:1012700091E09E8390E898879AEF99872091BD032B
:101280003091BE03275F3F4F3C832B838D83C70183
:101290000E94D80749E050E0B80180E00E94E307CF
:1012A0000E94B7087BC0C7012A8B0E94D8072A89F1
:1012B000223241F482E290E00E943F08892B09F03B
:1012C0006DC070C0213069F488899989089711F43C
:1012D0002093BA038091BA03882389F06FEF70E0FE
:1012E00016C0233009F05EC08C85882359F0823007
:1012F00061F0813009F056C063E271E008C061E13D
:1013000071E005C06DE571E002C06BE371E061154D
:10131000710509F447C0FB01449150E080E80E9448
:10132000E3073CC0873009F43DC0883021F481E0F8
:101330008093F10033C0893089F5937099F5EBEF14
:10134000F0E081E021E096E38093E9002093EB0058
:1013500034913093EC009093ED008F5F319685309F
:1013600099F78EE78093EA001092EA008C858093CB
:10137000BF0314C0888999890E94D8078E8581117E
:1013800005C0CE010A960E94600806C0823051F462
:10139000CE010A960E947F05882321F08EEF80936C
:1013A000E80003C081E28093EB0062960FB6F894E8
:1013B000DEBF0FBECDBFDF91CF91FF91EF91BF9107
:1013C000AF919F918F917F916F915F914F913F91DD
:1013D0002F911F910F91FF90EF900F900FBE0F90E4
:1013E0001F9018958093E9008091F200882319F0EE
:1013F0008AE38093E800089583E00E94F20908954B
:101400001F920F920FB60F9211242F933F934F9379
:101410005F936F937F938F939F93AF93BF93EF935C
:10142000FF938091E1001092E10083FF0FC01092C2
:10143000E90091E09093EB001092EC0092E390931E
:10144000ED001092BF0398E09093F00082FF26C059
:1014500083E00E94F20982E00E94B105882321F016
:101460008FEC93E00E941C068091C103882339F021
:101470008091C10381508093C103882369F08091DA
:10148000C003882359F08091C00381508093C0032A
:10149000811104C0289A02C05D9AF1CFFF91EF91AB
:1014A000BF91AF919F918F917F916F915F914F917C
:1014B0003F912F910F900FBE0F901F901895109293
:1014C000BF0381E08093D70080EA8093D80082E058
:1014D00089BD09B400FEFDCF61E070E080E090E0DE
:1014E0000E941B0380E98093D8008CE08093E20087
:1014F0001092E000559A209A089561E081E10E94DF
:10150000D00361E081E10E9497038CB580618CBDBE
:101510008CB580648CBD61E08FE00E94970361E030
:1015200080E10E9497030895811103C08CB5806209
:1015300002C08CB58F7D8CBD08959CB5937F982B90
:101540009CBD08952CB5982F93702C7F922B9CBD39
:101550009DB582FB882780F99E7F982B9DBD0895BD
:10156000CF93DF93FB01DA01E901853540F4982F31
:10157000990F980F908390959C93188213C08A3A84
:1015800048F48555982F990F980F892F809580835F
:101590001C9207C08A5A1082982F990F980F9C931B
:1015A00090959883DF91CF910895A0E0B0E0EBEDA6
:1015B000FAE00C9412354C015B016A01FA0160807B
:1015C000712CFB01C081D0E0FC01008110E09C2F58
:1015D0008D2FC017D10714F4902F812FE92EF82EEC
:1015E000E614F7040CF47301B701882777FD8095A2
:1015F000982F0E94CC3220E030E0A9010E942D32C9
:1016000018160CF03FC03C2F2D2F0C171D0714F49B
:10161000302F212F832F922F681679060CF4C301E7
:10162000B701681B790B0E151F055CF0CE018619FA
:101630009709A5E0880F991FAA95E1F70E948A34BF
:101640001CC0CE15DF056CF0C301801B910BF5E0CB
:10165000880F991FFA95E1F70E948A34605C7F4FEA
:101660000CC0C8018C1B9D0BE5E0880F991FEA9503
:10167000E1F70E948A3460587F4F77FF05C06054BD
:101680007F4F02C060E070E0CB01992753E0880FE4
:10169000991F5A95E1F76295669567706230D9F0A7
:1016A00048F4662381F0613019F58095F401808358
:1016B0008FEF0CC06330A9F06430D1F4F401808363
:1016C000F501108213C09FEFF4019083F501808330
:1016D000F601108215C0F40110829FEFF50190838E
:1016E0000DC0F40110828095F50180838FEF06C054
:1016F0009FEFF4019083F50110828095F6018083BD
:10170000CDB7DEB7EEE00C942E358EBD0DB407FEDE
:10171000FDCF8EB50895CF93C82F60E08BE00E9477
:10172000D0038C2F0E94850B61E08BE00E94D003D8
:10173000CF910895CF93DF93D82FC62F60E08BE031
:101740000E94D0038D2F0E94850B8C2F0E94850B49
:10175000C82F61E08BE00E94D0038C2FDF91CF91E6
:10176000089560E085E00E949A0B08950E94B10BF5
:1017700080FDFCCF089586E00E948B0B0E94B60B83
:1017800080E50E948B0B0E94B60B60E081E00E9416
:101790009A0B0E94B60B86E00E948B0B0E94B60B40
:1017A0000895A1E0B0E0E7EDFBE00C941C35162FA6
:1017B000082F79830E94BB0B60E08BE00E94D0036E
:1017C00080E20E94850B802F0E94850B7981872FF4
:1017D0000E94850B812F0E94850B61E08BE00E94A7
:1017E000D0030E94B60B84E00E948B0B0E94B60BC4
:1017F0002196E4E00C943835A3E0B0E0E2E0FCE0B0
:101800000C941A35F62EE82E890160E08BE04A83AD
:101810005B8379830E94D00383E00E94850B8E2D29
:101820000E94850B7981872F0E94850B8F2D0E9446
:10183000850B4A81E42E5B81F52E0E0D1F1DE016EF
:10184000F10639F080E00E94850BF70181937F015A
:10185000F6CF61E08BE00E94D0032396E6E00C9483
:101860003635A1E0B0E0E7E3FCE00C941635D62E67
:10187000C82E8A0179012115310509F448C086E096
:1018800079830E948B0B60E08BE00E94D0038DEA8D
:101890000E94850B8C2D0E94850B7981872F0E94D9
:1018A000850B8D2D0E94850BF80180810E94850B90
:1018B000F80181810E94850B61E08BE00E94D003DA
:1018C0000E94B60BB2E0AB2EB12CAE14BF04E0F414
:1018D00060E08BE00E94D0038DEA0E94850B6801D6
:1018E000CA0CDB1CF60180810E94850BF601818108
:1018F0000E94850B61E08BE00E94D0030E94B60B32
:10190000F2E0AF0EB11CE1CF84E00E948B0B219678
:10191000EAE00C9432359C018091B9008E7F80936F
:10192000B9008091B9008D7F8093B90040E050E00C
:1019300060ED77E080E090E00E94C034822F20319B
:1019400030F030E02051310935952795822F809372
:10195000B8000895519A80E991E00E948B0CECEB5D
:10196000F0E080818460808308958BE590E0209191
:10197000BC0027FD03C001970097C9F7089588238D
:1019800019F00E94830208958091BC008F708068D6
:101990008093BC0008954091060150910701609129
:1019A000080170910901DB01CA012DE0880F991F20
:1019B000AA1FBB1F2A95D1F784279527A627B727EB
:1019C000AC01BD0131E176956795579547953A95FC
:1019D000D1F7482759276A277B27DB01CA01E5E0B1
:1019E000880F991FAA1FBB1FEA95D1F78427952757
:1019F000A627B7278093060190930701A0930801BB
:101A0000B09309010895882319F00E9403040895F2
:101A100060E086E00E94D00308950F931F93CF9358
:101A2000DF93C82F882319F161E081E00E94D00381
:101A3000E7E3F0E03197F1F78C2F90E0F3E0959534
:101A40008795FA95E1F7CFE1D0E0C81BD90B00E00C
:101A500010E00C171D077CF460E081E00E94D003C9
:101A600061E081E00E94D0030F5F1F4FF2CF60E082
:101A700081E00E94D003DF91CF911F910F910895D3
:101A8000CF93DF93D62FC42F8F3F31F061E08111C8
:101A900060E08DE00E94D003DF3F31F061E0D111C2
:101AA00060E081E10E94D003CF3F29F0CC2311F008
:101AB0005D9801C05D9ADF91CF910895A0E0B0E0FC
:101AC000E4E6FDE00C941435EA0100E010E06C015E
:101AD000EE24D7FCE094FE2C4B01AA2497FCA094A2
:101AE000BA2C0C171D079CF460E08DE00E94D00317
:101AF000C701B6010E941B0361E08DE00E94D00384
:101B0000C501B4010E941B030F5F1F4FEACFCDB781
:101B1000DEB7ECE00C94303580E090E00E944E356A
:101B200090E00895682F80E090E00E945635089577
:101B30008FEC93E00E94FD01892BD1F38FEC93E0B1
:101B40000E9421020895CF93DF930E94980DC82F21
:101B5000D0E0DC2FCC270E94980D9E01282BC901D4
:101B6000DF91CF910895CF92DF92EF92FF92CF93C2
:101B7000DF93EB01C82ED12CE12CF12CBCE0CC0C76
:101B8000DD1CEE1CFF1CBA95D1F72CE030E0AB0158
:101B9000C701B6010E94FC0B80E1C80ED11CE11CFC
:101BA000F11CC882D982EA82FB828FEF8C878D87F5
:101BB0008E87DF91CF91FF90EF90DF90CF900895C7
:101BC000DC0117963C911797232F220F230F269F96
:101BD000F001279FF00D11246D917D918D919C91C5
:101BE0006E0F7F1F811D911DA42FB0E0FD01E30F3B
:101BF000F11D71973CF0E0E1F0E0EA1BFB0B2E2FAA
:101C0000220F2E0F30E0B3E04B9FA0011124405172
:101C10005D4F0E94FC0B0895A8E0B0E0E2E1FEE019
:101C20000C941B359B01F12C0AE010E0E1E0F0E0A0
:101C3000EC0FFD1FEF0DF11DB8010E948A34805D8D
:101C40008083CB01F394009789F7F90180E090E05D
:101C50004F2D50E061E070E06C0F7D1F640F751F29
:101C60000197AE2FA21BAF1530F4DB01A80FB91FEF
:101C7000AC91A193F5CFF901E40FF51F10822896DE
:101C8000E5E00C943735CF92DF92FF920F931F93CC
:101C9000CF93DF9300D0CDB7DEB79CEBC92ED12C0C
:101CA00095EAF60190836A8389830E94B50C0BEB59
:101CB00010E09EEDF801908325E8F22EF601F08207
:101CC0000E94B50C8981F8018083F601F0820E94A0
:101CD000B50C6A81F8016083F601F0820E94B50CB0
:101CE00085E9F601808380818B7F80838081846099
:101CF00080830F900F90DF91CF911F910F91FF90F4
:101D0000DF90CF900895A0E0B0E0E9E8FEE00C9409
:101D100012356C015B014A01390160E080E00E94EC
:101D2000430ECAE0D0E0C801BE010E948A3490E1AF
:101D3000699F800D1124682F81E00E94430EC3012A
:101D4000BE010E948A3490E1699F800D1124682FA2
:101D500082E00E94430EC401BE010E948A3490E1D9
:101D6000699F800D1124682F84E00E94430EC501F5
:101D7000BE010E948A3490E1699F800D1124682F72
:101D800085E00E94430EC601BE010E948A3490E1A4
:101D9000699F800D1124682F86E00E94430EC701C1
:101DA000BE010E948A3490E1699F800D1124682F42
:101DB000606880E00E94430ECDB7DEB7EEE00C9481
:101DC0002E35ECEBF0E08081816080830895880FF0
:101DD00080936403609363034093620310925503FE
:101DE00081E0809354030E94E10E85EA8093BC0059
:101DF0000895809154038111FFCF109240030895FC
:101E000085E0EBE3F3E0A6E3B3E001900D928A9561
:101E1000E1F708951F920F920FB60F9211242F939E
:101E20003F938F939F93EF93FF9380915403882365
:101E300009F457C08330B9F038F4813051F0823062
:101E400049F5809163030BC0843031F0853069F02F
:101E500021C08091640303C08091640381608093FA
:101E6000BB0085E80FC085EA0DC080916203813018
:101E700029F08091BC008F70806C04C08091BC0000
:101E80008F7080688093BC00809154038F5F809333
:101E9000540327C0E091550321E02E0F20935503F2
:101EA0008091BB00F0E0EA5AFC4F8083809162038E
:101EB000281791F030E090E001972817390729F0B2
:101EC0008091BC008F70806C04C08091BC008F70CA
:101ED00080688093BC0005C085E98093BC001092A7
:101EE0005403FF91EF919F918F913F912F910F900C
:101EF0000FBE0F901F90189583FF02C092E001C0A3
:101F000091E084FF09C080FF03C090934D0304C09B
:101F1000292F219520934D0385FF09C081FF03C020
:101F200090934C0304C0292F219520934C0386FFE6
:101F300004C082FF919590934B03089580914003D4
:101F4000882309F462C09091540391119AC084309F
:101F500009F44FC040F48130A9F0823009F052C03A
:101F6000809156034BC08630E9F1803209F04AC0B7
:101F700087E0E6E5F3E0A1E4B3E001900D928A95F5
:101F8000E1F740C08091560390E0982F8827209178
:101F90005703822B44E0959587954A95E1F79093F6
:101FA0004F0380934E03809159032091580390E092
:101FB000922B54E0959587955A95E1F790935103AC
:101FC0008093500380915B0320915A0390E0922B01
:101FD00064E0959587956A95E1F790935303809314
:101FE000520310C08091560380934A0380915A0394
:101FF00005C08091560380934A0304C0809349032F
:102000000E947C0F10924003089580914803811133
:102010000CC088E00E943904892B81F489E00E9479
:102020003904892B71F182E00AC01092480347E01D
:1020300060E08FE60E94E70E80E221C081E090918F
:102040003B03981307C046E061E08CE10E94E70E75
:1020500081E015C090913D03981307C045E06EE103
:102060008CE10E94E70E86E00AC090913C03981331
:1020700008C041E062E28CE10E94E70E82E08093BA
:1020800040030895A1E0B0E0E8E4F0E10C941835D5
:10209000FCEBCF2ED12CA5EAEA2EF601E082898353
:1020A0000E94B50C0BEB10E098E3F8019083B5E8C3
:1020B000FB2EF601F0820E94B50C8981F801808325
:1020C000F601F0820E94B50CF601E08289E3F80186
:1020D0008083F601F0820E94B50C0E9483020E9468
:1020E000B50CF801808189830E94B50C95E9F60151
:1020F000908390819B7F908390819460908389816D
:102100002196E8E00C943435CF92DF92FF920F9342
:102110001F93CF93DF9300D0CDB7DEB72CEBC22E49
:10212000D12C95EAF60190836A8389830E94B50CCD
:102130000BEB10E098E3F801908335E8F32EF601FD
:10214000F0820E94B50C8981F8018083F601F0824B
:102150000E94B50C6A81F8016083F601F0820E944A
:10216000B50C85E9F60180830F900F90DF91CF9138
:102170001F910F91FF90DF90CF9008958AE20E9407
:102180004210682F6E7F8AE20E94841008958AE2CE
:102190000E944210682F61608AE20E9484100895B4
:1021A000CF93DF93EC010E94F90E85E0FE01ABE3D3
:1021B000B3E001900D928A95E1F70E94BE10609104
:1021C0003E03623021F0643011F0683031F470E089
:1021D000759567957595679501C060E08EE00E94E2
:1021E00084108AE20E944210682F677C20913F038E
:1021F000277088E0289F90011124622B8AE20E94B8
:10220000841060E481E10E94841064E183E10E9413
:10221000841064E884E10E94841065E082E10E94F9
:1022200084106FE781E20E94841060E283E20E94E2
:10223000841060E284E20E94841060E285E20E94E1
:10224000841060E386E20E9484106DE086E20E94C2
:10225000841068E287E20E9484106FEF88E20E9497
:10226000841069E086E20E94841060E287E20E94A6
:10227000841060E888E20E94841062E08CE20E9490
:10228000841069E18DE20E94841061E08EE20E9478
:10229000841063E08FE00E94841064E18DE10E946D
:1022A000841068E08FE10E9484106FE28FE10E9449
:1022B000841065E080E20E94841061E080E20E9468
:1022C000841080913B03882331F0C1E0813009F014
:1022D000C0E061E002C0C0E060E080913C03882380
:1022E00021F06860813009F4C86080913D03882343
:1022F00021F06062813009F4C0628DE20E94841096
:102300006C2F8EE20E9484100E94C710DF91CF9143
:1023100008950E94F90E86E393E00E94D01008957C
:10232000892B19F00E943004089560E087E00E9434
:10233000970360E087E00E94D0030895CF93C82FF1
:10234000209114013091150130933503209334030B
:1023500085E00E9462049093150180931401CC23C0
:10236000D9F0BC01882777FD8095982F0E94CC3248
:1023700020E030E040E85AE30E9480332DE134ED64
:1023800047EA50E40E94803360931001709311017A
:102390008093120190931301CF9108958F929F9291
:1023A000AF92BF92CF92DF92EF92FF9280E00E94B5
:1023B0009E110E94EB026B017C018091B30390910E
:1023C000B403A091B503B091B603209114013091EC
:1023D0001501273B3340ACF0892B8A2B8B2B99F5C9
:1023E000C092A303D092A403E092A503F092A603A7
:1023F000C092B303D092B403E092B503F092B60357
:1024000022C00097A105B105F1F09601281B390BF8
:10241000C092A303D092A403E092A503F092A60376
:102420002031310544F0D092B003C092AF03309315
:10243000B2032093B1031092B3031092B40310922D
:10244000B5031092B6038090AB039090AC03A090BC
:10245000AD03B090AE038AE00E943904892BE9F401
:102460008091AB039091AC03A091AD03B091AE030A
:10247000892B8A2B8B2B89F4C092A303D092A403BF
:10248000E092A503F092A603C092AB03D092AC03F6
:10249000E092AD03F092AE032FC08AE00E943904AF
:1024A000892B51F18091AB039091AC03A091AD03C6
:1024B000B091AE03892B8A2B8B2BF1F0C6018819C2
:1024C0009909C092A303D092A403E092A503F092CD
:1024D000A6038031910544F0D092A803C092A703CF
:1024E0009093AA038093A9031092AB031092AC03BC
:1024F0001092AD031092AE03FF90EF90DF90CF905B
:10250000BF90AF909F908F9008950E94CE118091C0
:10251000AB039091AC03A091AD03B091AE03892BB6
:102520008A2B8B2B91F78091B3039091B403A091E8
:10253000B503B091B603892B8A2B8B2B31F7109200
:10254000B2031092B1031092B0031092AF03109235
:10255000AB031092AC031092AD031092AE03109235
:10256000AA031092A9031092A8031092A70308953A
:1025700061E087E10E94970360E087E10E94D00359
:10258000FFCFCF92DF92FF920F931F93CF93DF93F2
:1025900000D0CDB7DEB75CEBC52ED12C95EAF601A5
:1025A00090836A8389830E94B50C0BEB10E092E55F
:1025B000F801908365E8F62EF601F0820E94B50CD2
:1025C00089818068F8018083F601F0820E94B50C51
:1025D0006A81F8016083F601F0820E94B50C85E9FA
:1025E000F601808380818B7F8083808184608083FB
:1025F0000F900F90DF91CF911F910F91FF90DF907F
:10260000CF900895AF92BF92DF92EF92FF920F9317
:102610001F93CF93DF931F92CDB7DEB77CEBA72E2E
:10262000B12CE5EADE2EF501D08289830E94B50C3B
:102630000BEB10E092E5F8019083F5E8FF2EF50131
:10264000F0820E94B50C89818068F8018083F501D1
:10265000F0820E94B50CA5E9EA2EF501E082D08255
:102660000E94B50C83E5F8018083F501F0820E9499
:10267000B50C80E00E94BF0C0E94B50CF8011081DF
:10268000F501E08261E070E080E090E00E941B03D1
:10269000F50190819B7F9083908194609083812F3E
:1026A0000F90DF91CF911F910F91FF90EF90DF90EE
:1026B000BF90AF900895682F609581E00E94C1128D
:1026C0006FEF82E00E94C11260EE8FE00E94C112A3
:1026D00063E08EE00E94C11267E180E00E94C112B7
:1026E00080E00E943904892BD9F784E10E9402130B
:1026F00090E0909333038093320385E10E940213AC
:1027000090E0982F88272091320330913303280FCF
:10271000391F309333032093320386E10E94021362
:1027200090E0909331038093300387E10E9402137D
:1027300090E0982F88272091300330913103280FA3
:10274000391F309331032093300388E10E94021334
:1027500090E090932F0380932E0389E10E9402134F
:1027600090E0982F882720912E0330912F03280F77
:10277000391F30932F0320932E038AE10E94021306
:1027800090E090932D0380932C038BE10E94021321
:1027900090E0982F882720912C0330912D03280F4B
:1027A000391F30932D0320932C038CE10E940213D8
:1027B00090E090932B0380932A038DE10E940213F3
:1027C00090E0982F882720912A0330912B03820FC5
:1027D000931F90932B0380932A032091320330910F
:1027E0003303309321032093200320913003309151
:1027F0003103309323032093220320912E03309141
:102800002F03309325032093240320912C03309130
:102810002D0330932703209326039093290380935D
:10282000280360E080E00E94C112089561E08111F8
:1028300060E084E00E94D0030895803158F4633052
:1028400048F493E0899FF0011124E051FD4FE60F19
:10285000F11D408308951F93CF93DF93D82F162F38
:10286000C0E0412F6D2F8C2F0E941D14CF5FC0310F
:10287000C1F7DF91CF911F910895803198F4E82F2F
:10288000EE0FE80FAE2FB0E0A051BD4F6C93A1E06A
:10289000AE0FB0E0A051BD4F4C93EE5FF0E0E051C1
:1028A000FD4F20830895A3E0B0E0E9E5F4E10C9446
:1028B00016358C01D42EFC018781869F7001879F7D
:1028C000F00C11249701A3E036952795AA95E1F71E
:1028D0006081718182819381620F731F811D911DBF
:1028E00023E030E0AE014F5F5F4F0E94FC0BF7E04A
:1028F000EF22FF2481E0F82E01C0FF0CEA94EAF7F2
:10290000F801E484C584B68417811D0D113108F0E7
:1029100010E180E001E0080FE1E0F0E0EC0FFD1FC6
:10292000E80FF11DA0808F2D8A2121F02B2D4C2D39
:102930006E2D03C020E040E060E08D2D0E943D142C
:10294000D394D11630F4FF0C71F7FF24F394802F49
:10295000E1CF2396EAE00C943235362FFC01518505
:10296000351B5581531798F05681642F70E0359FC1
:10297000600D711D11243481313031F0383139F45A
:10298000422F0E94E00D0895422F0E945314089593
:10299000CF93DF93EC01FB01CA016E8170E00E94CE
:1029A0007634E60FF71F482F6081CE010E94AD14E8
:1029B000DF91CF9108950F931F93CF93DF93D82F7B
:1029C000162F042FC0E0202F412F6D2F8C2F0E9437
:1029D0003D14CF5FC031B9F7DF91CF911F910F91B7
:1029E000089561E084E00E94D00361E08CE00E94E1
:1029F000D00360E08CE00E94D00360E084E00E949D
:102A0000D00308955091170147E1EFEFE40FA42F91
:102A1000B0E0A051BD4F2C91259F90011124E631CB
:102A200019F00DB407FEFDCF3EBD4250F0E0E0517D
:102A3000FD4F8081859FC0011124392F32953F7051
:102A4000207F232B0DB407FEFDCF2EBD74E096959D
:102A500087957A95E1F74F3F09F44FE20DB407FEF1
:102A6000FDCF8EBD473189F60DB407FEFDCF0E9424
:102A7000F1140895A0E0B0E0E0E4F5E10C9418351D
:102A8000F82EE62ED42EC22EC0E0D0E0082F11275B
:102A900007FD1095FE01E00FF11F70973CF42E2DFD
:102AA0004D2D6C2D8C2F8F0D0E943D14F801EC1BC9
:102AB000FD0BF7FD07C02E2D4D2D6C2D8F2D8C1B82
:102AC0000E943D140E9402156EE170E080E090E0EB
:102AD0000E941B032196C031D105E1F6CDB7DEB7C8
:102AE000E8E00C943435A0E0B0E0E9E7F5E10C94BF
:102AF0001735D82EC62EB42EE90140E060E080E004
:102B00000E94DB14C017D10744F42B2D4C2D6D2DE2
:102B10008C2F0E943D142196F5CF0E940215B7011B
:102B2000882777FD8095982F0E941B03CDB7DEB7CD
:102B3000E9E00C9433358AE08093170140E060E0CF
:102B400080E00E94DB148FEF809302031092030356
:102B5000109204031092050380930603109207035A
:102B6000109208031092090380930A0380E880936F
:102B70000B0380930C0380930D030E9402151092A7
:102B80006E0048E350E060E070E080E090E0DC013F
:102B9000E82FF42F09940895A0E0B0E0E2EDF5E10C
:102BA0000C9410356C010E94851262E370E080E0A5
:102BB00090E00E941B0380E00E949E11812C912CCA
:102BC00054018091B3039091B403A091B503B091E7
:102BD000B603892B8A2B8B2B09F1AAE0EA2EF12C64
:102BE00009E010E026E030E040E850E060E870E006
:102BF00080E090E00E9473150E94CE11B4E1EB2EAC
:102C0000F12C0FE010E020E030E040E050E060E028
:102C100070E080E090E00E947315D3CFC3E0D0E075
:102C20006EE170E080E090E00E941B030E94CE11F4
:102C300081E00E949E118091B3039091B403A09112
:102C4000B503B091B603892B8A2B8B2B91F420917D
:102C50001001309111014091120150911301C501F1
:102C6000B4010E94C9314B015C0121972097C1F644
:102C700003C0812C912C540120E030E040E450E46A
:102C8000C501B4010E9431324B015C0120E030E00B
:102C9000A9010E942D32882309F493CF40E060E01F
:102CA00080E00E94DB14C0E0D0E00FE0BE01882786
:102CB00077FD8095982F0E94CC3220E030E040E8EC
:102CC0005DE30E94803328E636E646E65FE30E9435
:102CD00080332AE939E949E550E40E94C9312B01E2
:102CE0003C019B01AC01C501B4010E947C33181664
:102CF0000CF049C02AE939E949E650E4C301B201C0
:102D00000E947C331816C4F42AE939E949E650E4F4
:102D1000C301B2010E94C83120E030E04FE753E424
:102D20000E94803328E636E646E25FE30E943132B5
:102D30000E949932162F01C010E02AE939E949E7CB
:102D400050E4C301B2010E942D3287FF15C0A301D8
:102D500092016AE979E989E790E40E94C83120E0AC
:102D600030E04FE753E40E9480339B01AC010E94A6
:102D7000C9310E94993201C060E020E0412F802FCC
:102D80008C1B0E943D141C141D0444F40E94021567
:102D90006CE070E080E090E00E941B032196C0315F
:102DA000D10509F083CF0E94021564E670E080E04F
:102DB00090E00E941B038091D90080FF12C086E141
:102DC0000E94390410921D03892B31F08FEF8093FC
:102DD0001E0310921F0305C010921E038FEF8093F5
:102DE0001F030E940215D7FE2CC0D194C194D108B4
:102DF000C0E0D0E00E94CE118091B3039091B40363
:102E0000A091B503B091B603892B8A2B8B2B31F49B
:102E10008AE00E943904892B09F04EC0C0E020E00E
:102E200040E060E08C2F0E943D140E9402156CE08F
:102E300070E080E090E00E941B03CF5FC03179F723
:102E40001EC064E670E080E090E00E941B03C0E0DA
:102E5000D0E0CC15DD059CF40E94CE118091B30327
:102E60009091B403A091B503B091B603892B8A2B3E
:102E70008B2B29F48AE00E943904892B49F540E024
:102E800060E080E00E94DB140E940215C0E0D0E008
:102E90000E94CE118091B3039091B403A091B50329
:102EA000B091B603892B8A2B8B2BD1F48AE00E9438
:102EB0003904892BA9F026C064E170E080E090E03D
:102EC0000E941B036496CC15DD050CF493CFA6CFAE
:102ED00064E170E080E090E00E941B036496B9CF4B
:102EE000C536D1053CF040E860E880E80E94DB147C
:102EF0000E94021521966AE070E080E090E00E9456
:102F00001B03C6CF0E948512CDB7DEB7E0E10C945B
:102F10002C3560E086E00E94D00360E081E00E94F2
:102F2000D0030E948C0D2091B7033091B803821713
:102F3000930719F0C9010E94920D0E94CE11812CB5
:102F4000912C54018091B3039091B403A091B503E7
:102F5000B091B603892B8A2B8B2B79F1C501B40173
:102F60000E94E33320E030E040E252E40E948033EC
:102F700026E636E646EA5FE30E94C9310E949932AE
:102F8000CB0177FF02C080E090E01AE0E12EF12C47
:102F90000CE010E024E030E0AC01BC010E947315AD
:102FA0002AE037ED43E25DE3C501B4010E94C93177
:102FB0004B015C010E94CE11C5CF8CE09EEF0E94B8
:102FC000CC150E94B812A5E0B0E0E9EEF7E10C9450
:102FD0000E358091B3039091B403A091B503B091E5
:102FE000B603892B8A2B8B2B09F42DC10E94EB028F
:102FF0000091B3031091B4032091B5033091B6034F
:10300000601B710B820B930B693572408105910532
:1030100008F419C10E94000F81E089831A821B8283
:1030200082E08C831D82CE0101960E94D01004E6BE
:10303000802E912CA12CB12C22242A94322CC12C2C
:10304000D12C76019EE3492E512C612C712C61E02C
:1030500070E080E090E00E941B030E94CE118091FE
:10306000B3039091B403A091B503B091B603892B3B
:103070008A2B8B2B39F4181419043CF431E0831A91
:10308000910803C0F4E68F2E912C0E949E0FADE3B1
:10309000B0E0A70196010E94FB3420914E033091CD
:1030A0004F0304EF11E0021B130B222717FD20959D
:1030B000322F600F711F821F931FA30192010E9484
:1030C000C03469017A01CA01B90123E230E040E06D
:1030D00050E00E94C0342B3F8FEF3807ACF037FD33
:1030E00006C02F3031052CF02FE030E002C020E088
:1030F00030E0F901E85EFE4F008110E00115110596
:1031000009F05CC0A12CB12C40E060E080E00E949E
:10311000DB14EFEFAE1ABE0AC50191708F3F910527
:1031200031F028F02FEF31E0281B390BC9019C0149
:1031300043E0369527954A95E1F72093FC022093CA
:10314000FD022093FE02AC01569547955695479592
:103150004093FF024093000340930103BC01769526
:103160006795609302036093030360930403809365
:1031700005038093060380930703809308038093DD
:10318000090380930A0360930B0360930C0360931D
:103190000D0340930E0340930F03409310032093BD
:1031A000110320931203209313030E9402158BE84E
:1031B00091E00197F1F700E010E02BC020163106F6
:1031C00031F128E1A22E21E0B22E3FE0332EF501AD
:1031D00061915F0120911601862F90E00817190771
:1031E00034F0261708F4622F262F462F03C020E064
:1031F00040E060E0832D0E943D143A94FFEF3F12BF
:10320000E6CF0E9402158BE891E00197F1F7A12C1F
:10321000B12C8114910411F0180119CF0115110579
:1032200011F40E9489170093170181E08093A20393
:103230000E94851240E060E080E00E94DB140E9462
:1032400002150E9489112596E2E10C942A35CF934C
:10325000DF93D82FC62F40E060E080E00E94DB14AF
:103260000E9402150E94F90ECC2319F08FEF0E94E4
:1032700003048D2F90E00E945B13CC2319F080E0B3
:103280000E94030DDF91CF910895A0E0B0E0EBE440
:10329000F9E10C941635EC018B015A0140E060E035
:1032A00080E00E94DB140E9402150E94F90E8FEF4D
:1032B0000E9403048AE090E00E945B1380E00E9479
:1032C000030DA0913003B0913103C0902E03D09034
:1032D0002F03CA16DB060CF46D0180912C0390912C
:1032E0002D03C816D9060CF46C01EE24D7FCE0942B
:1032F000FE2C2FEF30E00E94F434A70196010E94CB
:10330000C0342883A0912E03B0912F032FEF30E01B
:103310000E94F434A70196010E94C034F801208372
:10332000A0912C03B0912D032FEF30E00E94F434D4
:10333000A70196010E94C034F5012083A501B801C0
:10334000CE010E94D50ACDB7DEB7EAE00C94323543
:1033500061E08FE00E94970361E080E10E949703A3
:1033600061E084E00E94D00361E084E00E94970362
:1033700061E084E00E94D00361E08CE00E9497034A
:103380000E947D0A81E00E94940A80E00E949D0ACA
:1033900084E00E94A20A40E060E080E00E94DB142A
:1033A0000E94021581E00E94161408951F93CF9386
:1033B000DF9380E8809361001092610091E895BFEF
:1033C00085BF60E084E10E94970361E084E10E9490
:1033D000D00360E085E00E94D00360E085E00E94B9
:1033E000970360E086E00E94D00360E081E00E94E5
:1033F000D00361E081E00E94970361E086E00E94D3
:10340000970361E08BE00E94D00361E08BE00E94B3
:10341000970361E08DE00E94970361E081E10E94E3
:10342000D00361E081E10E9497035D9A60E08AE049
:103430000E94970361E08AE00E94D00360E088E088
:103440000E94970360E089E00E94970360E080E0BB
:103450000E94970361E080E00E94D00343E050E0C7
:1034600062E370E082E390E00E945E0D0E94A81982
:1034700080E090E00E9490110E94AA0C84E10E94DA
:103480003904892B11F482E005C08091D90080FFB6
:1034900004C081E08093650302C01092650360E080
:1034A00084E10E9427192091320330913303F901FE
:1034B00037FD3196F595E795FF27C901BF010E94B9
:1034C0008A346E0F7F1F77FF02C06F5F7F4FFB0153
:1034D000F595E795FF27C901BF010E948A346E0F59
:1034E0007F1F77FF02C06F5F7F4F75956795669569
:1034F000623018F06093170103C082E080931701D7
:103500008DE00E94421090E08A32910519F1843CCE
:10351000910501F1873C9105E9F082E10E9442109A
:10352000C82FD0E010E0AE0141705527419520E052
:1035300064E6812F0E943D14D595C7951F5F183012
:1035400091F70E94021561E070E080E090E00E9437
:103550001B03F9CF63E973E080E80E94B30D64E8D0
:1035600073E081E80E94B30D65E773E082E80E9492
:10357000B30D66E673E083E80E94B30DDF91CF914F
:103580001F910895A0E0B0E0E8ECFAE10C94193541
:10359000182FF62ED42ED21AC42FD1E0CD1569F0F3
:1035A0008D2F812311F0402F01C04E2D6F2D8C2FB8
:1035B0000E941D14DD0FC150F1CFCDB7DEB7E7E09B
:1035C0000C943535A0E0B0E0E8EEFAE10C94143547
:1035D0004A01122FC82FD0E06A01EE24D7FCE094F4
:1035E000FE2CA62EB12C60E0812F0E942B14402FC0
:1035F000612F8C2F0E941D140E94021581149104CA
:1036000021F0C701B6010E941B03CA15DB0514F4A3
:10361000219601C02197CA15DB0529F760E0812FAB
:103620000E942B14402F612F8C2F0E941D140E948A
:103630000215CDB7DEB7ECE00C943035A0E0B0E079
:10364000E4E2FBE10C941035782E662E5A01522EDE
:103650004E2C681710F41FEF01C011E0170D872CD6
:10366000C72D6501EE24D7FCE094FE2CD0E0912C10
:1036700040E060E080E00E94DB14242D402F652DA7
:103680008C2F0E943D140E940215A114B10421F058
:10369000C701B6010E941B03C815D90514F4219671
:1036A00001C02197C815D90519F7E12FF0E0CE1711
:1036B000DF0799F4161519F0872CC12FD7CF761490
:1036C00018F48824839402C088248A94870C861472
:1036D00079F0C62D162D782CC9CF161103C0812E76
:1036E000C72DC4CF161510F41F5FF9CF1150F7CFB7
:1036F00040E060E080E00E94DB14242D402F652D27
:103700008C2F0E943D140E940215CDB7DEB7E0E178
:103710000C942C358F929F92AF92BF92CF92DF92F2
:10372000EF92FF920E94EB026B017C0190910D01E0
:103730009E3F68F48091D102890F80930D018F3FE5
:1037400021F09091D3028917B0F08EEF12C08091D2
:10375000E4029091E502A091E602B091E7028C505C
:103760009E4FAF4FBF4F8C159D05AE05BF051CF496
:103770008FEF80930D0180910F01811184C0909192
:10378000D90280910C01911140C080FF7CC0209132
:103790000A0130910B014091D3028090DA0290909F
:1037A000DB028091DE029091DF02880E991E9594D3
:1037B0008794AA2497FCA094BA2C8091EC02909153
:1037C000ED02A091EE02B091EF02880E991EAA1EA2
:1037D000BB1EA42FB0E00E94E534BB2797FDBA952D
:1037E000A92F982F872F881A990AAA0ABB0A8C1426
:1037F0009D04AE04BF040CF046C081E080930F012D
:10380000415040930D018FEF3CC081FF3CC020919F
:103810000A0130910B014091D3028090DC0290901C
:10382000DD028091DE029091DF02880E991E959450
:103830008794AA2497FCA094BA2C8091E8029091D6
:10384000E902A091EA02B091EB02880E991EAA1E2D
:10385000BB1EA42FB0E00E94E534BB2797FDBA95AC
:10386000A92F982F872F881A990AAA0ABB0A8C14A5
:103870009D04AE04BF043CF481E080930F011092DC
:103880000D018093D10280914A03882309F45DC021
:10389000C092E402D092E502E092E602F092E702E2
:1038A00083FF50C09091D90282FF26C0992309F46A
:1038B00049C0C092E002D092E102E092E202F092AE
:1038C000E302C092EC02D092ED02E092EE02F0929E
:1038D000EF028091E8029091E9029601281B390BD2
:1038E0003093DD022093DC021092D90210920F0176
:1038F00010920E0181E024C0911124C0C092E00218
:10390000D092E102E092E202F092E302C092E80279
:10391000D092E902E092EA02F092EB028091EC028E
:103920009091ED029601281B390B3093DB02209316
:10393000DA0281E08093D90210920F0110920E01F9
:103940008093D20210924A0324C080910E0181110B
:1039500020C08091E4029091E502A091E602B0912E
:10396000E702AC01BD01485F5F4F6F4F7F4F4C15C1
:103970005D056E057F056CF42091E0023091E10257
:10398000821B930B9093DF028093DE0281E0809391
:103990000E018091D8028F5F8093D8028F37A8F0F4
:1039A0008091D4029091D5029601281B390B309357
:1039B0000B0120930A01C092D402D092D502E0926A
:1039C000D602F092D7021092D802FF90EF90DF90CB
:1039D000CF90BF90AF909F908F900895AAE2B0E0F3
:1039E000E4EFFCE10C940E358FEC93E00E94FD01B6
:1039F000892B09F4BBC140E060E084E10E94DB1444
:103A00000E94021561E070E080E090E00E941B03DC
:103A10008E010F5F1F4FF12C8FEC93E00E94FD0190
:103A2000892BB1F4E1E0F0E0EC0FFD1FEF0DF11D8B
:103A300010826EE971E0CE0101960E944535892B16
:103A400059F469EA71E08FEC93E00E94B20404C07B
:103A5000BFE1FB127CC1E6CF65ED71E0CE010196BE
:103A60000E944535892B19F40E949B1566C161EEB1
:103A700071E0CE0101960E944535892B09F04AC0BC
:103A800081E09091CE02911180E08093CE0240E0DF
:103A900060E00E94400D6CE971E08FEC93E00E94C1
:103AA00093044AE050E061E070E08FEC93E00E9404
:103AB00036056CE971E08FEC93E00E9493046CE9A9
:103AC00071E08FEC93E00E9493044AE050E063E0E1
:103AD00070E08FEC93E00E9436056CE971E08FECAA
:103AE00093E00E9493044AE050E066E070E08FECBF
:103AF00093E00E9436056CEE71E08FEC93E00E943B
:103B000093044AE050E06091CE028FEC93E00E9473
:103B1000680513C16EEF71E0CE0101960E94453534
:103B2000892B09F0F7C00E94980D182F0E94A30D51
:103B30004C01A12CB12CB501A401ACE076956795A0
:103B400057954795AA95D1F7342E9F70892B19F078
:103B500033243394340E1123B1F0832D90E0810F80
:103B6000911D8F3F91057CF4C12ED12CE12CF12CBD
:103B7000FCE0CC0CDD1CEE1CFF1CFA95D1F72601F5
:103B8000370100E003C06BE072E0D3C0031551F0D1
:103B9000C301B2010E94D10B0F5FE0E15E0E611C18
:103BA000711CF4CF0E94EB0269A37AA38BA39CA3A0
:103BB000412C512C320122242A94481459046A04BD
:103BC0007B0408F040C09E012F5F3F4FB301A2016C
:103BD00000E0481559056A057B05C0F429A73AA7F6
:103BE0004DA35EA36FA378A70E94980D29A53AA5BF
:103BF000D9018D939D010F5F4DA15EA16FA178A5A5
:103C00004F5F5F4F6F4F7F4F003219F700FF08C0C3
:103C1000E1E0F0E0EC0FFD1FE00FF11D20820F5FEF
:103C2000202F30E0C301B2016C0D7D1D8E1D9F1D44
:103C3000AE014F5F5F4F0E94310CB0E24B0E511C42
:103C4000611C711CBACF0E94EB022B013C0120E2E7
:103C500030E0AE014F5F5F4FC701B6010E94FC0B21
:103C6000B301A20189A19AA1ABA1BCA1481B590B28
:103C70006A0B7B0B2AE030E08FEC93E00E9400059A
:103C800061E372E08FEC93E00E9493044AE050E01D
:103C9000612F8FEC93E00E94600562E472E08FEC8C
:103CA00093E00E9493044AE050E0632D8FEC93E090
:103CB0000E9460056BE472E08FEC93E00E94930435
:103CC0002AE030E0B501A4018FEC93E00E94510599
:103CD0006CE971E08FEC93E00E9493047E0191E225
:103CE000E90EF11C8E010F5F1F4FD8016D918D0100
:103CF00040E150E08FEC93E00E94600563E572E0E4
:103D00008FEC93E00E9493040E151F0571F765E593
:103D100072E00FC069E572E08FEC93E00E949304BB
:103D2000BE016F5F7F4F8FEC93E00E94930466E6C5
:103D300072E08FEC93E00E94B2040E94851240E092
:103D400060E080E00E94DB140E9402150FC08FEC3F
:103D500093E00E9421028A3009F464CE8D3009F488
:103D600061CEF394D8018D938D0156CEAA96E2E1EF
:103D70000C942A35CF92DF92EF92FF920F931F930C
:103D80000E94CE110E94EE1C0E94EB020091AB0338
:103D90001091AC032091AD033091AE0301151105D4
:103DA00021053105B9F06B017C01C01AD10AE20A84
:103DB000F30A41EDC41647E0D406E104F10454F0DF
:103DC0001092AB031092AC031092AD031092AE03AD
:103DD00080E024C00091A3031091A4032091A503C7
:103DE0003091A603DC01CB01801B910BA20BB30B1E
:103DF000813E9349A440B10574F08091D90080FDC3
:103E00000AC04AE050E062E370E082E390E00E9482
:103E10005E0D0E9489170E94E31781E01F910F91A8
:103E2000FF90EF90DF90CF900895A5E3B0E0EBE135
:103E3000FFE10C9415356C01962E7A014115510560
:103E400021F4B3E9EB2EB3E0FB2E911028C0809152
:103E5000A9039091AA03892B09F0A8C08091B1030E
:103E60009091B203892B09F0A1C08091AB0390918E
:103E7000AC03A091AD03B091AE03892B8A2B8B2BA1
:103E800009F094C08091B3039091B403A091B5035D
:103E9000B091B603892B8A2B8B2B09F087C0DE01EA
:103EA0001196E0EFF2E081918D9383E0E032F80724
:103EB000D1F7F6018F010C191D0981918111FACFFB
:103EC00080E8F701848785878FEF86870E94000F3F
:103ED00019AA1AAA81E08BAB82E08CAB8DAB5E0194
:103EE000F1E3AF0EB11CC5010E94D010F70186812D
:103EF000880F809F002D11240093D30291100E94FF
:103F000085120E94BA1E882361F08091AB039091C4
:103F1000AC03A091AD03B091AE03892B8A2B8B2B00
:103F200029F0A0EFB2E0FE0131960EC00091B3037C
:103F30001091B4032091B5033091B603011511051A
:103F40002105310579F0EDCF81918D93EA15FB05BF
:103F5000D9F70E9402150E948911992039F10E9417
:103F6000851224C00E949E0F0E948A1B40910D0161
:103F70004F3F81F04E3F41F0469550E020E0B601C2
:103F8000C7010E94C8140FC040E060E080E00E94BA
:103F9000DB1409C0A0EFB2E0FE01319681918D9350
:103FA000EA15FB05D9F70E940215ABCFE596EBE0C9
:103FB0000C943135A0E0B0E0E0EEFFE10C94153553
:103FC000EB018C0140E025E030E0FF24FA9450E161
:103FD000E52E009791F1B9010E947634A82FCB010C
:103FE000542F652F641B6A1718F0452FA51B13C0AB
:103FF0005031D9F3FE01E50FF11DF082108A10A2B5
:104000005F5FEFCF403169F0FE01E40FF11D1082D8
:10401000108AE0A24F5F5A2F540F543099F7403165
:1040200011F440E10AC0FE01E40FF11D1082108A74
:1040300010A24F5F403169F6F4CF403140F4FE01E9
:10404000E40FF11D1082108A10A24F5FF6CF7E019F
:10405000912C5E0180E1A80EB11C6E01E0E2CE0E53
:10406000D11CA7014C1B5D0BF70121917F01DA01E7
:10407000AA0DBB1DFA01EC0DFD1D4C916081892D2F
:104080000E943D149394F0E19F12EBCF0E94021521
:10409000ECE3F1E022E030E0CAE0D0E001151105E8
:1040A00051F0C801BE010E948A34805D82938B0169
:1040B00021503109F3CF80E237FD07C0F901E75CF9
:1040C000FE4F808321503109F7CF20E030E040E0FF
:1040D00050E061E089E391E00E94151FCDB7DEB7A3
:1040E000EBE00C943135A6E7B0E0E9E7F0E20C94A0
:1040F0000E3581E090E00E944E35082F10E01093BD
:10410000D0020093CF0282E090E00E944E35282F2B
:1041100030E0322F2227200F311F3093D00220931E
:10412000CF0281E0A2968FAFA297A3961FAEA3976E
:10413000A4961FAEA49782E0A5968FAFA597A696EA
:104140001FAEA697CE018F599F4F0E94D01080E0DE
:1041500090E03E0121E3620E711CF301B096E496FB
:10416000FFAFEEAFE4978330910584F4FE01E75989
:10417000FF4FE80FF91F20E82083E6E6F0E0EC0FA0
:10418000FD1FE80FF91F10820196EDCFB2E08B2ED4
:10419000412C512CAE961FAEAE97AD961FAEAD978B
:1041A00010E8912E01E010E043940E949E0F1092BF
:1041B000B2031092B1031092AA031092A9030E94B5
:1041C000BA1E882309F438C280915003909151039C
:1041D000AD963FADAD97830F911D37FD9A958C3904
:1041E0004FEF940734F0853691054CF062E032E3EE
:1041F00002C061E03EECAD963FAFAD9704C060E019
:10420000AD961FAEAD979C012F573F4F2B33310515
:1042100020F431E0AE963FAFAE979C0124573F4F5C
:104220002135310518F0AE961FAEAE979C0127548C
:1042300031092B33310510F455245394CC97813533
:10424000910508F0512C80E3F30111928A95E9F76A
:10425000392C3294FFE03F22232D30E0889CA001CE
:104260001124440F551F849EC001859E900D11247A
:104270000296F301E20FF31F808361110EC0E1E4A7
:10428000F0E0EC0FFD1FE20FF31F8083E1E5F0E0AB
:10429000EC0FFD1FE20FF31F80839E012A593F4F51
:1042A0007901CE0187599F4F5C01C12CD12C262F5B
:1042B00030E0E0963FAF2EAFE097542D53703FEFC4
:1042C000E0E82E2EE0968EAD9FADE0970196E29647
:1042D0009FAF8EAFE297F7018081882309F407C171
:1042E000E0968EAD9FADE097C816D90671F0053007
:1042F000110508F042C0E296EEADFFADE297CE1692
:10430000DF0619F001151105C1F5F501208122958F
:104310002F70822F90E0E1E4F0E0EC0FFD1FE80F3A
:10432000F91F3083E1E5F0E0EC0FFD1FE80FF91F06
:104330004081411117C0AE964FADAE97442329F08E
:1043400042E0C416D10409F02082552059F0B6018C
:104350006D7F672B39F4E1E5F0E0EC0FFD1FE80F0E
:10436000F91F2082231199C0F7011082F2E0F8159D
:1043700008F083940F5F1F4F90C0F50120812295B4
:104380002F70231161C0F70110828A9401F140E07F
:1043900060E08FEFE5962FAFE597E7963FAFE797A1
:1043A000E6965FAFE6970E94DB140E9402156CE36D
:1043B00070E080E090E00E941B03E5962FADE5974A
:1043C000E7963FADE797E6965FADE6973DC02FEFE6
:1043D00040E060E0832D0E943A158091CF029091D9
:1043E000D0028017910708F52FEF40E06FEF87E0CC
:1043F0000E943A152FEF4FEF60E087E00E943A15D8
:1044000020E04FEF60E087E00E943A151093D00261
:104410000093CF02602F81E090E00E9456356091BA
:10442000D00282E090E00E945635BE016F5F7F4F60
:10443000C8010E94DA1F20E040E060E087E00E94AF
:104440003A1580E090E08FCE822F90E0E1E5F0E039
:10445000EC0FFD1FE80FF91F3083E1E4F0E0EC0FF3
:10446000FD1FE80FF91F2081211117C0AE962FAD57
:10447000AE97222329F042E0C416D10408F420822A
:10448000552059F0B6016D7F672B39F4E1E4F0E077
:10449000EC0FFD1FE80FF91F2082511128C0F70112
:1044A0008081181684F4F501608170E0EFEFF0E090
:1044B000E81BF10987FDF395E617F70724F4F701E8
:1044C00010820F5F1F4FF701808187FF09C0819520
:1044D000F5019081981720F4F70110820F5F1F4FAC
:1044E000F5018081F7019081890FF5018083FFEF4D
:1044F000CF1ADF0A2FEFE21AF20A4FEFA41AB40A1A
:1045000083E0C816D10409F0E6CE8091B103909102
:10451000B203892B31F48091A9039091AA03892BCE
:10452000B1F020E04FEF60E0832D0E943A15BE010C
:104530006F5F7F4FC8010E94DA1FBE016F5F7F4F20
:104540008091CF029091D0020E94DA1F2DCEE49686
:10455000AEACBFACE497630190E1C90ED11C73010E
:10456000312CF50161915F01F60141916F01F70175
:1045700021917F01832D0E943D143394F0E13F127D
:10458000F0CF0E9402150E94CB0CC82ED12C23E044
:10459000C216D1049CF576E6E72EF12CEC0EFD1E3A
:1045A000EC0CFD1CF7018081811128C00E94CB0C0E
:1045B0008370B82EF70180830E94CB0C80FF0BC064
:1045C000FFE2F91558F4E9E6F0E0EC0FFD1FEC0D01
:1045D000FD1D108213C02FED2915A8F3E9E6F0E0C8
:1045E000EC0FFD1FEC0DFD1D8FEF8083E6E6F0E084
:1045F000EC0FFD1FEC0DFD1DB194B0826AE070E080
:1046000080E090E00E941B0380914E0390914F0345
:1046100097FD0F9664E0959587956A95E1F781314E
:1046200091051CF030E1930EBFCD803F4FEF940712
:104630000CF480EF980EB8CDCA58DF4FE2E10C942D
:104640002A35A0E0B0E0E7E2F3E20C940E357C01FD
:10465000CB014A01B7010E948A34EC0137E0232ED6
:10466000312C270121E0421A5108CE01B1010E94EC
:104670008A34019680FF04C0C0901701D12C02C07B
:10468000C12CD12C81FF04C0A0901701B12C02C015
:10469000A12CB12C82FF04C060901701712C02C0C4
:1046A000612C712C00E010E00C171D0721F4262D61
:1046B0004A2D6C2D03C020E040E060E0802F0E9476
:1046C0003D140F5F1F4F0031110571F70E94021555
:1046D0000E94BA1EFE01EE0FFF1FE80DF91D20E03B
:1046E00030E040E050E060E0808191810E94151F41
:1046F0008091B1039091B203892B79F0209711F446
:10470000820106C0CE010197B7010E948A348C0154
:104710001092B2031092B10301C08E018091A903DF
:104720009091AA03892B51F0C8010196B7010E940C
:104730008A348C011092AA031092A9038091AB03D2
:104740009091AC03A091AD03B091AE03892B8A2B5D
:104750008B2BD1F10E94EB022091AB033091AC0383
:104760004091AD035091AE03621B730B840B950B0C
:10477000673272408105910538F194E0E92EF12C01
:1047800060911701262F462F8C2F0E943D140E9406
:10479000021562E370E080E090E00E941B0320E0DD
:1047A00040E060E08C2F0E943D140E94021562E3FD
:1047B00070E080E090E00E941B0381E0E81AF108BD
:1047C000E114F104E9F602C0E8014FCFC801CDB70A
:1047D000DEB7E2E10C942A35A0E2B0E0E2EFF3E2CA
:1047E0000C940E358FEF8F8F8E8F8D8F85E1EFE3D9
:1047F000F1E0DE01119601900D928A95E1F789E5CD
:104800009FE6A1E2B0E08E8B9F8BA88FB98F1A8EA6
:104810001B8E1C8E18A2712C66246394812C912C03
:10482000540174EFC72EDD24D3940E94BA1E88234E
:1048300009F4D3C08AE090E00E945B1300912A0340
:1048400010912B03C016D1060CF46801A501940148
:10485000C501B4010E94C9314B015C01B801882730
:1048600077FD8095982F0E94CC329B01AC01C50149
:10487000B4010E94C93120E030E040E450E40E94DD
:1048800031324B015C01611026C020E030E040E88D
:1048900051E40E9480331B012C01B601882777FD6B
:1048A0008095982F0E94CC329B01AC01C201B101CE
:1048B0000E9431329B01AC0160E070E080E891E43D
:1048C0000E94C8310E9499329B01603171052CF021
:1048D0002FE030E002C020E030E04D8D50E0EE8D62
:1048E000F0E08F8DEE24E394F12C00E110E0BF01A5
:1048F00090E00E947315662049F020E030E040E02F
:1049000050E060E0CE0146960E94151F8091A903F9
:104910009091AA03009781F1873292402CF088A1F0
:1049200091E0892788A324C028A1222359F0AE0151
:10493000435E5F4FBE01625E7F4FCE014F960E9485
:1049400045190DC060E084E60E942719809130036C
:104950008F8F80912E038E8F80912C038D8FBE01BF
:104960006A5E7F4F80913203909133030E940C0E58
:104970001092AA031092A9038091B1039091B203FF
:10498000892B09F452CF87E0781601F123E0729E5B
:10499000C0011124E1E0F0E0EC0FFD1FE80FF91F6A
:1049A00020812F8FE2E0F0E0EC0FFD1FE80FF91FF0
:1049B00020812E8FE3E0F0E0EC0FFD1FE80FF91FE0
:1049C00080818D8F73946624639402C0712C612C56
:1049D0001092B2031092B10328CF80E00E94030D21
:1049E00060E080E00E94C112A096E2E10C942A35BA
:1049F000AEE1B0E0EEEFF4E20C940E351B8A1C8AB7
:104A000082E08D8B8E8B8F8BCE0143960E94D010CF
:104A100089E0E8E6F2E0DE011A9601900D928A95AF
:104A2000E1F789E0E1E7F2E09E012F5F3F4F398F28
:104A3000288FD90101900D928A95E1F780918A0320
:104A40008295807F8093D302912CA12CB12CC12C14
:104A5000D12C8CE3282E312CCE010A969B8F8A8F85
:104A60009FEFC91AD90A0E94BA1E882309F495C279
:104A70000E949E0F0E948A1BA114B10409F098C0E5
:104A8000C60164E670E00E947634892B21F4E1E0EF
:104A9000E09348038DC0A09141037091420390912F
:104AA0004303F09145034091460360914703292F4A
:104AB00030E0E4E035952795EA95E1F7822F87709D
:104AC000805D8A87392F3F7080E3830F8B87872F24
:104AD00090E0B4E095958795BA95E1F7E82FE770F7
:104AE00080E38E0F8D877F7080E3870F8E878A2FFC
:104AF00090E014E0959587951A95E1F7B82FB77077
:104B000080E38B0F888BAF7080E38A0F898B862FB1
:104B100090E054E0959587955A95E1F78770805D10
:104B20008983162F1F7080E3810F8A83842F90E082
:104B300054E0959587955A95E1F7982F9170905D7F
:104B40009C83942F9F7040E3490F4D834F2F50E07B
:104B5000689413F8559547951694E1F7437050E320
:104B6000540F5F83FF7050E35F0F58876A2E5AE03F
:104B7000B59F600C1124572E5AE0E59F500C11246C
:104B80002370432EEAE02E9F400C11248F2E2AE042
:104B9000429F800C11248370792E3AE0839F700C21
:104BA000112462956F705AE0659F100D11241C8FBF
:104BB00040910D014F3F09F45FC04E3F09F449C0D9
:104BC000469550E060918A03862F90E0880F991FE8
:104BD0004817590734F410929003109291038FEF05
:104BE0000CC083E0689F900111244217530744F4DE
:104BF0008FEF8093900380939103809392031BC067
:104C000095E0699F900111244217530734F41092E4
:104C100090038FEF809391030CC0E6E06E9FC0017C
:104C200011244817590724F38FEF809390031092B3
:104C300091031092920321E0921203C0688D798D46
:104C400002C06A8D7B8D20E084E893E00E94C81446
:104C500005C040E060E080E00E94DB140E94021585
:104C60008091A9039091AA03892B09F4F9CE93941A
:104C7000392D3170932E8CC140E060E080E00E94BD
:104C8000DB14C6016CE271E00E94763411E08639D3
:104C9000910508F010E051E0951234C0112321F085
:104CA00081E0A816B10411F0E12C02C030E2E32E3D
:104CB0000FEF25E04FE060E0882D0E94C21A11231B
:104CC00021F092E0A916B10411F0E12C02C020E21B
:104CD000E22E0FEF24E04AE061E0872D0E94C21A25
:104CE000112321F0E3E0AE16B10411F0E12C02C073
:104CF00090E2E92E0FEF27E046E062E08C8D0E9403
:104D0000C21A46C022E0A216B104B1F0112321F06C
:104D100031E0A316B10411F0E12C02C080E2E82ECC
:104D20000FEF26E04FE060E0862D0E94C21A51E0AE
:104D3000A516B10431F413C0112319F000E2E02EDE
:104D400001C0E12C0FEF26E04FE061E0852D0E94CD
:104D5000C21A112321F083E0A816B10411F0E12C4E
:104D600002C0B0E2EB2E0FEF26E048E062E0842DB7
:104D70000E94C21AA114B10421F4862D817081957C
:104D800001C08FEF80930B0380930C0380930D037E
:104D90000E9402158091B1039091B203892B09F40E
:104DA0004BC0911025C092E0A916B10441F4852DA5
:104DB00090E0CB96B1010E948A34582E39C0E1E0D0
:104DC000AE16B10441F4862D90E0CB96B1010E945D
:104DD0008A34682E2DC023E0A216B10449F5842D33
:104DE00090E0479668E170E00E948A34482E20C027
:104DF00032E0A316B10429F47A94D1F4ACE07A2E0F
:104E000017C051E0A516B10429F48A9489F4FFE192
:104E10008F2E0EC083E0A816B10451F4EC8D8E2FB6
:104E200090E08D599F4F64E670E00E948A348C8F29
:104E30001092B2031092B1038091A9039091AA033A
:104E4000009709F40DCE873292400CF448C0A114AB
:104E5000B10469F1C50101979E8F8D8FC5018B7FCC
:104E6000019709F090C0E62CF12C052D10E0242DBF
:104E700030E0482D50E0672D70E0EC8D8E2F90E0F3
:104E80000E94830E4FEF6FEF8FEF0E94DB140E94A2
:104E9000021568EC70E080E090E00E941B0340E0A7
:104EA00060E080E00E94DB140E9402156CC04FEFAE
:104EB0006FEF8FEF0E94DB140E94021568EC70E028
:104EC00080E090E00E941B0340E060E080E00E94F0
:104ED000DB140E940215E3E0AE2EB12C59C0A114E0
:104EE000B10409F44BC0911025C022E0A216B10410
:104EF00041F4852D90E00196B1010E948A34582E2C
:104F000047C031E0A316B10441F4862D90E001962C
:104F1000B1010E948A34682E3BC053E0A516B1044B
:104F2000B9F5842D90E0019668E170E00E948A3422
:104F3000482E2EC082E0A816B10439F473949CE088
:104F4000971520F57724739421C0E1E0AE16B104E3
:104F500039F483942FE12815C8F48824839416C06B
:104F600033E0A316B10491F45C8D852F90E0019697
:104F700064E670E00E948A348C8F08C09394892D77
:104F80008170982E05C0AD8CBE8C02C0992493947C
:104F90001092AA031092A90363CD6E96E2E10C94DD
:104FA0002A35A8E1B0E0E7EDF7E20C940F3582E195
:104FB000E4E5F1E0DE01119601900D928A95E1F7AA
:104FC0008FEF809317011B8A81E08C8B1D8A82E012
:104FD0008E8B1F8ACE0143960E94D010612C412CEB
:104FE0004AE0C42ED12C312C712C9FE055245394CF
:104FF00056E0A52EB12C411022C088248394912C18
:105000008C0E9D1E23E0329E800C911C1124E12CFD
:10501000F12CF401EE0DFF1D208130E00FEF10E0C8
:10502000A601672D892F988F0E94E21A8FEFE81A48
:10503000F80A988D23E0E216F10459F74EC0EE24E9
:10504000EA940FEF2FEF41E050E0672D892F0E9487
:105050001E1B4424439441C00E94BA1E882309F4B5
:105060006DC00E949E0F8091B1039091B203892B75
:1050700031F11092B2031092B1034FEF6FEF8FEF47
:105080000E94DB140E94021562E070E080E090E074
:105090000E941B0340E060E080E00E94DB142FEFE1
:1050A0004FEF6FEF872D0E943D140E94021543942D
:1050B000842D8170482E109249035092A203809152
:1050C000A203882351F02FEF4FEF6FEF872D0E943F
:1050D0003D140E9402151092A2038091A9039091A1
:1050E000AA03009709F4B8CF8632924044F482E3D1
:1050F000C816D10454F49FEFC91AD90A06C01C146B
:105100001D041CF421E0C21AD1081092AA031092C7
:10511000A903832D90E00196B5010E948A34382EB0
:1051200081E0860D982F9170692E80FF04C03FE0CA
:10513000732E90E060CF712C9FE05DCF6896E1E127
:105140000C942B35EF92FF920F931F93CF93DF9325
:1051500081E08093A203F09017018FEF80931701F5
:1051600000E010E0C0E0D0E0EE24E3940E94BA1E1C
:10517000811113C00E94030D80E00E940D0D40E0DC
:1051800060E080E00E94DB140E940215F09217019B
:10519000CDB7DEB7E6E00C9436358091A903909147
:1051A000AA03892B31F12196C370DD271092AA033F
:1051B0001092A903E092A203C80101968C0103702A
:1051C000112780FF02C060E001C061E081E10E9420
:1051D000D003C80195958795892B11F05D9801C082
:1051E0005D9A42E050E06EE170E08EE190E00E9456
:1051F0005E0D8091A203882309F4B8CF1092A20318
:1052000040E060E080E00E94DB140E94021580E034
:105210000E94030D80E00E940D0D61E070E080E0CF
:1052200090E00E941B03209729F4809117010E94AF
:10523000030D9CCFC130D10529F4809117010E9444
:105240000D0D94CFC230D10509F090CF4FEF6FEF25
:105250008FEF0E94DB140E94021588CFFF920F93FC
:105260001F93CF93DF9340E060E080E00E94DB1467
:105270001092140310921503CFEFC09316030E94EF
:1052800002156AE070E080E090E00E941B0340E0BD
:1052900060E080E00E94DB140E94021562E370E08F
:1052A00080E090E00E941B0340E060E080E00E940C
:1052B000DB148091170110920B0380930C03C093B1
:1052C0000D030E9402156AE070E080E090E00E9409
:1052D0001B0340E060E080E00E94DB140E940215A6
:1052E00062E370E080E090E00E941B0340E060E039
:1052F00080E00E94DB1410920203C093030310921B
:1053000004030E9402156AE070E080E090E00E94D1
:105310001B0340E060E080E00E94DB140E94021565
:1053200062E370E080E090E00E941B0340E060E0F8
:1053300080E00E94DB14C093F902C093FA0210923D
:10534000FB020E9402156AE070E080E090E00E949B
:105350001B0340E060E080E00E94DB140E94021525
:1053600062E370E080E090E00E941B0340E060E0B8
:1053700080E00E94DB14C093F0021092F1021092C0
:10538000F2020E9402156AE070E080E090E00E9464
:105390001B0340E060E080E00E94DB140E940215E5
:1053A00062E370E080E090E00E941B03F12CC6EE07
:1053B000D0E040E060E080E00E94DB1420E040E0CC
:1053C0006FEF8F2D8F700E943D1420E04FEF6FEF35
:1053D00083E08F0D8F700E943D1420E04FEF60E05E
:1053E00086E08F0D8F700E943D142FEF4FEF60E02D
:1053F00089E08F0D8F700E943D142FEF40E060E038
:105400008CE08F0D8F700E943D140E94021500E009
:1054100010E00C171D070CF04EC0C130D10531F063
:1054200061E070E080E090E00E941B030E94BA1EE1
:10543000882309F442C08091A9039091AA030097A0
:10544000B9F1873292407CF01092AA031092A9031E
:105450008091A9039091AA03892B31F50E94BA1E6D
:105460008111F6CF2AC062E370E080E090E00E94F4
:105470001B03CE01959587950196C80FD91FCE01C4
:105480008B5F9109893F910548F468EE73E080E0F5
:1054900090E00E941B03C8EED3E006C0C43F81E049
:1054A000D80714F0C1E0D0E01092AA031092A9032B
:1054B0000F5F1F4FAECFF3947CCFCDB7DEB7E5E0E3
:1054C0000C943735A9E0B0E0E8E6FAE20C940E352A
:1054D00081E089831A821B8282E08C831D82CE0147
:1054E00001960E94D01088248A94912C312CA12CF2
:1054F000B12C01E010E01E821F8218861986EFE0B1
:105500002E2E0E949E0FAFE1B0E02E813F81488594
:1055100059850E94FB34C0905203D0905303EE246F
:10552000D7FCE094FE2C6C0D7D1D8E1D9F1D97FDFC
:1055300005C0615F7F4F8F4F9F4F04C06F5071094F
:105540008109910920E230E040E050E00E94C0343F
:105550002E833F8348875987A70196018E819F81BB
:10556000A885B985281B390B4A0B5B0BA114B10424
:1055700009F04AC0A8E2B0E00E94FB346B017C0154
:1055800090E8C90E97E0D91EE11CF11CF7FC0DC094
:10559000A1E0CA16AFE0DA06E104F1044CF0C12C38
:1055A0007FE0D72EE12CF12C03C0C12CD12C760149
:1055B00040E060E080E00E94DB144D2C5E2C6F2CFC
:1055C000772467FC7A948C9C900111249C9CA00108
:1055D00011243C9CC0011124232F452F692F81E009
:1055E000840D0E943D14C0948C9C900111249C9CBD
:1055F000A00111243C9CC0011124232F452F692FA9
:10560000842D0E943D143FC069017A0157FF08C0F4
:10561000F094E094D094C094C11CD11CE11CF11C06
:10562000C501019704C0F594E794D794C7948A956F
:10563000D2F7B5E0CB1AD108E108F10821E1C21692
:10564000D104E104F1042CF050E1C52ED12CE12C61
:10565000F12C40E060E080E00E94DB14412C512CF2
:1056600032014C145D046E047F046CF4282D492D26
:10567000632D822D84190E943D148FEF481A580A19
:10568000680A780AEECF0E9402150E94BA1E88238B
:10569000C9F18091B1039091B203892B59F0C501F2
:1056A000019666E070E00E948A345C011092B203B9
:1056B0001092B1038091A9039091AA03892B09F458
:1056C00020CF0F5F1F4F0830110514F001E010E0EC
:1056D000C80181709927382E3194C8019695879515
:1056E000A82FA1709A2E9194C801969587959695AA
:1056F0008795B82FB1708B2E81941092AA031092C7
:10570000A903FFCE2996E2E10C942A35ADE1B0E081
:10571000ECE8FBE20C940E351D8A1E8A91E09F8B0B
:1057200082E0888F898F888B998B9A8B8B8B1C8AD0
:10573000CE0140960E94D010BE016F5F7F4F81E086
:105740000E94B30D8F81880F8093D302712C1D8E20
:1057500001E010E04BE7242E312C50E8852E57E075
:10576000952EA12CB12CC12CD12C76010E949E0F1C
:105770000E948A1B0E94BA1E882309F4F9C18091F5
:10578000A9039091AA03892BD1F02DE3220E311C9D
:105790000F5F07FD01E0BE016F5F7F4F802F0E940A
:1057A000B30D8F81880F8093D302013019F0898562
:1057B0008A3B71F71092AA031092A9031D8E809163
:1057C000B1039091B203892B71F01092B203109241
:1057D000B103812F90E0019663E070E00E948A346B
:1057E000182F1092490380910D018F3F09F07EC15F
:1057F000772021F0CE0140960E94D01080914B037B
:10580000882319F08DE4280E311C10924B031130BF
:1058100009F49BC020F0123009F402C11CC1809130
:105820004D03823041F420EFC20E29E4D21E22E063
:10583000E21EF11C1BC08E3F41F480EFC81A89E4C0
:10584000D80A82E0E80AF10811C0813039F428EA68
:10585000C20E21E6D21EE11CF11C08C08F3F31F4BC
:1058600088EAC81A81E6D80AE108F10810924D03C7
:1058700020914E0330914F03442737FD4095542F1C
:105880002C0D3D1D4E1D5F1DA8E5B2E00E94FB34AE
:1058900029E532E040E050E00E94C03469017A011D
:1058A000CA01B90120EA3FE040E050E00E94C03464
:1058B000820E931EA41EB51EB7FE1DC0A2EEBFEF42
:1058C000A70196010E94093520E230E040E050E057
:1058D0000E94C03469017A01812C912C540124EF7B
:1058E000C21621E0D206E104F1040CF03DC1C12C46
:1058F000D12C760139C181148FE09806A104B1043E
:105900000CF4A9C0AEE1B0E0A70196010E94FB34FF
:1059100020E230E040E050E00E94C034243F81E0CB
:105920003807410551051CF420E030E0A901CC24E2
:10593000DD247601C21AD30AE40AF50A88248A947F
:105940003EE0932EA12CB12C0FC180914D038230EB
:1059500039F420E5C20E23ECD21EE11CF11C1AC062
:105960008E3F39F480E5C81A83ECD80AE108F108C3
:1059700011C0813039F428E9C20E2AE3D21EE11C9D
:10598000F11C08C08F3F31F488E9C81A8AE3D80AAD
:10599000E108F10810924D0360E877E080E090E0C4
:1059A000681979098A099B0928E030E040E050E055
:1059B0000E94C034DA01C90120914E0330914F0397
:1059C00037FF02C0295F3F4FA90123E05595479556
:1059D0002A95E1F79A01442737FD4095542F280F67
:1059E000391F4A1F5B1F2C0D3D1D4E1D5F1DA8E575
:1059F000B2E00E94FB3429E532E040E050E00E9432
:105A0000C03469017A01CA01B90120E931E040E0FE
:105A100050E00E94C034820E931EA41EB51E1BC00F
:105A200080914E0390914F034C01880C991C880E75
:105A3000991E97FE03C02FEF821A920A95948794BD
:105A400080E8881A88EF980AAA2497FCA094BA2CB8
:105A5000C12CD12C760180915003909151036AE0C2
:105A600070E00E948A34862F9E01265E3F4FAE0171
:105A7000455E5F4FBE01645E7F4F820D0E94B00A9B
:105A800040E060E080E00E94DB142A8D4B8D8C8D1D
:105A9000492C5A2C6B2C772467FC7A94289D900112
:105AA0001124489DA0011124889DC0011124232F99
:105AB000452F692F81E0840D0E943D142A8D8B8D26
:105AC0006C8D482D4095249F90011124849FC00126
:105AD0001124649FB0011124232F492F672F842D97
