:100000000C949B010C94C3010C94C3010C94C30188
:100010000C94C3010C94C3010C94C3010C94C30150
:100020000C94C3010C94C3010C94010A0C94CD08E8
:100030000C94C3010C94C3010C94C3010C94C30130
:100040000C94C3010C94C3010C94C3010C94C30120
:100050000C94C3010C94C3010C94C3010C94A20230
:100060000C94C3010C94C3010C94C3010C94C30100
:100070000C94C3010C94C3010C94C3010C94C301F0
:100080000C94C3010C94C3010C94C3010C94C301E0
:100090000C940B0F0C94C3010C94C3010C94C3017A
:1000A0000C94C3010C94C3010C94C301D901DC016D
:1000B000CF01D301FD01FD01FD01E001E401E801F3
:1000C000EE01F201FD01F8016332663269326C32F1
:1000D0006F327232753278327B327E32813205A8CD
:1000E0004CCDB2D44EB93836A9020C50B99186889D
:1000F000083CA6AAAA2ABE000000803F00C1808159
:10010000C1120100020200004041233680000101BB
:10011000020001120100020000004041233680006D
:1001200001010200011803410072006400750069BA
:10013000006E006F0020004C004C00430022034181
:100140000072006400750069006E006F0020004CB2
:100150000065006F006E006100720064006F0004B3
:1001600003090400000000000000002A2B28000002
:10017000000000000000000000000000000000007F
:100180000000002C9EB4A0A1A2A434A6A7A5AE3660
:100190002D3738271E1F20212223242526B333B6CE
:1001A0002EB7B89F8485868788898A8B8C8D8E8FA1
:1001B000909192939495969798999A9B9C9D2F31A4
:1001C00030A3AD350405060708090A0B0C0D0E0F08
:1001D000101112131415161718191A1B1C1DAFB184
:1001E000B0B500090402000103000000092101016B
:1001F0000001226500070584034000010501090292
:10020000A1010901A10085010509190129031500B2
:10021000250195037501810295017505810305018D
:100220000930093109381581257F75089503810644
:10023000C0C005010906A1018502050719E029E7EB
:100240001500250175019508810295017508810346
:1002500095067508150025650507190029658100B3
:10026000C0080B00020202010009040000010202A2
:1002700000000524001001052401010104240206E8
:100280000524060001070581031000400904010050
:10029000020A000000070502024000000705830271
:1002A000400000070605040100080A0B0C0D0900B8
:1002B00000000200080E0000030401000B00000013
:1002C0000000000000000000000000000004080220
:1002D00001104080401020408040800802040180CE
:1002E0004020100201108010204040040404040447
:1002F00003040502020202040302020202060606C9
:100300000606060404020202040000000023002680
:100310000029002C002F0000000000250028002BE1
:10032000002E00310000000000240027002A002DCC
:1003300000300000E33211241FBECFEFDAE0DEBF51
:10034000CDBF12E0A0E0B1E0E8E4FDE602C0059018
:100350000D92A23EB107D9F724E0A2EEB2E001C0AF
:100360001D92AE33B207E1F713E0C6E3D3E004C059
:100370002297FE010E941F36C433D107C9F70E949D
:10038000DB320C94A2360C94000090E0FC01319713
:10039000EE30F10590F5EA5AFF4F0C941D3680912E
:1003A00080008F7703C0809180008F7D80938000D4
:1003B000089584B58F7702C084B58F7D84BD08957C
:1003C000809190008F7707C0809190008F7D03C04F
:1003D00080919000877F8093900008958091C00065
:1003E0008F7703C08091C0008F7D8093C0000895F7
:1003F0008091C200877F8093C2000895809131046C
:10040000909132042091330430913404821B930B79
:100410008F7399270895209131043091320480918F
:100420003304909134042817390749F0E0913304DC
:10043000F0913404EF50FC4F808190E008958FEFED
:100440009FEF08952091310430913204809133045C
:100450009091340428173907A9F0E0913304F09102
:100460003404EF50FC4F80812091330430913404E8
:100470002F5F3F4F2F73332730933404209333047F
:1004800090E008958FEF9FEF0895A0E0B0E0EBE4D7
:10049000F2E00C9456366C017A01EB01E60EF71E81
:1004A00000E010E0CE15DF0561F06991D601ED9115
:1004B000FC910190F081E02DC6010995080F191FEC
:1004C000F1CFC801CDB7DEB7E8E00C947236FF92E9
:1004D0000F931F93CF93DF93EC01F62EE881F98100
:1004E0000480F581E02D09958C01E881F981068071
:1004F000F781E02D6F2DCE010995C8019927CDB761
:10050000DEB7E5E00C947536ECEBF0E080818F709F
:10051000806C808308956115710589F0DB010D9071
:100520000020E9F7AD0141505109461B570BDC0192
:10053000ED91FC910280F381E02D0995089580E012
:1005400090E008951F920F920FB60F9211242F93EF
:100550003F938F939F93AF93BF9380913604909175
:100560003704A0913804B09139043091350426E065
:10057000230F2D3720F40296A11DB11D05C029E8D7
:10058000230F0396A11DB11D2093350480933604DB
:1005900090933704A0933804B093390480913A04BF
:1005A00090913B04A0913C04B0913D040196A11DA3
:1005B000B11D80933A0490933B04A0933C04B09304
:1005C0003D04BF91AF919F918F913F912F910F90DB
:1005D0000FBE0F901F9018952FB7F89460913604B6
:1005E0007091370480913804909139042FBF089599
:1005F0003FB7F89480913A0490913B04A0913C0459
:10060000B0913D0426B5A89B02C02F3F89F43FBF9F
:100610006627782F892F9A2F620F711D811D911DDA
:1006200043E0660F771F881F991F4A95D1F70895F9
:100630000196A11DB11DEBCFCF92DF92EF92FF92F9
:10064000CF93DF936B017C010E94F802EB01C11490
:10065000D104E104F10479F00E94F8026C1B7D0BD7
:10066000683E7340A0F381E0C81AD108E108F108A0
:10067000C851DC4FECCFDF91CF91FF90EF90DF902E
:10068000CF900895789484B5826084BD84B58160EC
:1006900084BD85B5826085BD85B5816085BDEEE68A
:1006A000F0E0808181608083E1E8F0E01082808169
:1006B00082608083808181608083E0E8F0E08081D7
:1006C00081608083E1E9F0E08081826080838081C5
:1006D00081608083E0E9F0E0808181608083E1ECEB
:1006E000F0E080818460808380818260808380816B
:1006F00081608083E3ECF0E0808181608083E0ECC6
:10070000F0E0808182608083E2ECF0E080818160B3
:100710008083EAE7F0E0808184608083808182606A
:100720008083808181608083808180688083089558
:10073000CF93DF9390E0FC01E353FD4F2491FC0144
:10074000E551FD4F8491882349F190E0880F991F6E
:10075000FC01EB5DFC4FA591B491895E9C4FFC01BF
:10076000C591D4919FB7611108C0F8948C912095E0
:1007700082238C93888182230AC0623051F4F894DA
:100780008C91322F309583238C938881822B8883A0
:1007900004C0F8948C91822B8C939FBFDF91CF91F2
:1007A0000895A1E0B0E0E7EDF3E00C945A36282F6D
:1007B00030E0F901E155FD4F8491F901E353FD4F1C
:1007C0001491F901E551FD4F04910023C9F08823EC
:1007D00021F069830E94C5016981E02FF0E0EE0FEE
:1007E000FF1FE95EFC4FA591B4919FB7F8948C91DF
:1007F000611103C01095812301C0812B8C939FBF91
:100800002196E4E00C9476360F931F93CF93DF93F9
:10081000C82F61E086E00E94D103E7E3F0E0319762
:10082000F1F78C2F90E0B3E095958795BA95E1F7B5
:10083000CFE1D0E0C81BD90B00E010E00C171D077A
:100840005CF460E086E00E94D10361E086E00E94F3
:10085000D1030F5F1F4FF2CFDF91CF911F910F9107
:10086000089561E087E00E94980361E087E00E94BC
:10087000D1030895CF93DF93282F30E0F901E1559C
:10088000FD4F8491F901E353FD4FD491F901E551F6
:10089000FD4FC491CC2391F081110E94C501EC2F32
:1008A000F0E0EE0FFF1FE75FFC4FA591B4912C9194
:1008B0002D2381E090E021F480E002C080E090E010
:1008C000DF91CF910895823108F08251E82FF0E056
:1008D000ED55FD4FE49180917B00E3FB222720F949
:1008E00030E095E0220F331F9A95E1F78F7D822B40
:1008F00080937B00E7708091380120E4829FC001E3
:100900001124E82BE0937C0080917A00806480932E
:100910007A0080917A0086FDFCCF8091780020914A
:10092000790090E0922B08950E948B020895DC01DB
:10093000ED91FC910190F081E02D099508950F93C0
:100940001F93CF93DF93EC016DE00E9497048C011D
:100950006AE0CE010E949704800F911FDF91CF9132
:100960001F910F9108950F931F93CF93DF93EC0185
:100970000E948B028C01CE010E949F04800F911F68
:10098000DF91CF911F910F910895A1E2B0E0EBECC0
:10099000F4E00C9452367C01C42EE52FCB01D22E0C
:1009A00019A221E02D1510F02AE0D22E8E010F5D44
:1009B0001F4F8D2C912CA12CB12C6C2D7E2FA501BD
:1009C00094010E94DC358C2DD29E80191124015097
:1009D00011098A3010F4805D01C0895CF8018083C0
:1009E000211531054105510521F0C22EE32FCA0121
:1009F000E4CFB801C7010E948B02A196ECE00C94F1
:100A00006E36A0E0B0E0E7E0F5E00C945636EC017D
:100A10006A017B012115310541F4E881F9810190DA
:100A2000F081E02D642F09951DC02A303105A9F40D
:100A300077FF12C06DE20E9497048C01442755276E
:100A4000BA014C195D096E097F092AE0CE010E94A6
:100A5000C504800F911F06C02AE0B701A601CE0190
:100A60000E94C504CDB7DEB7E8E00C9472369A0157
:100A7000AB01662757FD6095762F0E94010508950A
:100A80000F931F93CF93DF93EC010E9401058C011C
:100A9000CE010E949F04800F911FDF91CF911F9183
:100AA0000F9108952115310549F4DC01ED91FC9178
:100AB0000190F081E02D642F099508950E94C504EE
:100AC00008959A01462F50E060E070E00E945205C0
:100AD00008950F931F93CF93DF93EC019A01462F54
:100AE00050E060E070E00E9452058C01CE010E944F
:100AF0009F04800F911FDF91CF911F910F91089557
:100B0000FC0191818081813A31F481E0913091F052
:100B1000933089F411C0813271F49B3021F48281C9
:100B200080932F0105C09A3031F4828180932E0189
:100B300081E00895089580E00895615030F020919B
:100B4000F100FC0120830196F8CF289884E6809379
:100B5000D40308952FB7FC012083F8946770609345
:100B6000E9000895A1E0B0E0E8EBF5E00C945C3614
:100B7000682FCE0101960E94AA058091F20099810A
:100B80009FBF2196E2E00C947836A2E0B0E0EBEC57
:100B9000F5E00C945936F62E8A019091D3039923EF
:100BA00011F057FF03C08FEF9FEF2BC0682FCE01CE
:100BB00001967A830E94AA058091F20090E0A80134
:100BC0007A81801791070CF4AC01EF2DF72FF40E0A
:100BD00084E6FE1639F028988093D4039091F100B2
:100BE0009193F7CF4115510521F08091F2008823B0
:100BF00021F089818FBFCA0104C08BE68093E80091
:100C0000F8CF2296E5E00C947536A1E0B0E0EBE079
:100C1000F6E00C945C3641E050E0BE016F5F7F4F20
:100C20000E94C505019719F4898190E002C08FEFF9
:100C30009FEF2196E2E00C947836CF93DF93C0913A
:100C40003104D09132042196CF73DD278091330493
:100C500090913404C817D90799F082E00E940506E4
:100C60008F3F2FEF920761F0E0913104F091320451
:100C7000EF50FC4F8083D0933204C0933104DFCF18
:100C8000DF91CF910895A1E0B0E0E9E4F6E00C94A3
:100C90005C36682FCE0101960E94AA059091E8006B
:100CA000892F807295FF04C09091F20080E4891B27
:100CB00099819FBF2196E2E00C947836A1E0B0E0E4
:100CC000E4E6F6E00C944E36582E7B01A42E952EC9
:100CD0008091D303882369F0042F152F3AEFB32EA8
:100CE000852D8072782E4AE3842E852D8074682E9F
:100CF00011C08FEF9FEF53C0852D0E944306482EF1
:100D000081110CC0BA94A9F361E070E080E090E03A
:100D10000E941C030115110579F737C0282F30E018
:100D2000021713070CF4402EC42CD12C0C191D09EA
:100D3000652DCE0101960E94AA05772039F04A94CC
:100D40008FEF4816B1F01092F100F9CFF701842D22
:100D500057FE07C0815058F094919093F10031965E
:100D6000F9CF815020F091919093F100FACFEC0CE3
:100D7000FD1C8091E80085FF0FC00115110511F4DD
:100D800061100AC089818FBFC5CF5D9884E68093CA
:100D9000D5038A2D992D03C08092E800F3CF2196C8
:100DA000E0E10C946A36A1E0B0E0E9EDF6E00C94E5
:100DB0005A368C01698380913701882359F041E0CC
:100DC00050E0BE016F5F7F4F83E00E945E06181601
:100DD00019063CF081E090E0F8019383828380E083
:100DE00090E02196E4E00C947636A1E0B0E0EBEFE1
:100DF000F6E00C94583689838B017A0141E050E08B
:100E0000BE016F5F7F4F84E00E945E06A701B801BC
:100E100084E40E945E062196E6E00C94743648E075
:100E200050E082E00E94F5060895CF93DF93DC0145
:100E3000683818F0E8E7E60F25C0E62FF0E067FF16
:100E400011C0E058F10981E090E001C0880FEA95F7
:100E5000EAF714969C911497982B14969C931497E8
:100E6000E0E010C0ED59FE4FE491EE2309F440C0DC
:100E7000E7FF08C014968C911497826014968C93A7
:100E80001497EF7716968C9116978E1741F1179657
:100E90008C9117978E1719F118968C9118978E17B9
:100EA000F1F019968C9119978E17C9F01A968C91BA
:100EB0001A978E17A1F01B968C911B978E1779F0BD
:100EC00080E090E0ED01C80FD91F2E81211102C0F2
:100ED000EE8305C0019686309105A1F709C0BD01DA
:100EE0006C5F7F4FCD010E940F0781E090E008C04A
:100EF00081E090E013969C938E93129780E090E0AF
:100F0000DF91CF910895683818F0E8E7E60F25C023
:100F1000E62FF0E067FF12C0E058F10921E030E071
:100F200001C0220FEA95EAF72095DC0114963C9166
:100F30001497322314963C93E0E00FC0ED59FE4F16
:100F4000E491EE2329F1E7FF08C0DC0114962C910F
:100F500014972D7F14962C93EF7720E030E0EE234A
:100F600051F0DC01A20FB31F16964C9116974E1349
:100F700002C016961C922F5F3F4F2630310579F73D
:100F8000BC016C5F7F4F0E940F0781E090E00895E5
:100F900080E090E00895FC01168217821086118689
:100FA000128613861482BC016C5F7F4F0E940F076C
:100FB00008951092E9001092D2031092D1039093F9
:100FC000D0038093CF030895CF93DF93FB0120E0FC
:100FD00030E0DEEF24173507A1F187FF02C0C4918E
:100FE00001C0C081A091D103B091D2036091CF0321
:100FF0007091D003A617B707B4F49091E8009570EC
:10100000E1F39091E80092FD1EC0C093F100609161
:10101000D1037091D2036F5F7F4F6F737727672B78
:1010200011F4D093E8006091D1037091D2036F5F07
:101030007F4F7093D2036093D1032F5F3F4F319660
:10104000C9CFC90102C08FEF9FEFDF91CF91089503
:10105000FC0120812E5F208342E450E061E672E0D3
:1010600080E80E94E4070895FC0120812F5F20831F
:1010700049E150E063EE71E080E80E94E4070895E2
:1010800045E650E06CEF71E080E80E94E4070895C7
:10109000A1E0B0E0EEE4F8E00C945B36162F20916E
:1010A000E80022FFFCCF612F79830E949D058BEF22
:1010B0008093E800812F7981972F2196E3E00C94AB
:1010C0007736FC0181819081913A59F4813209F09F
:1010D0004BC047E050E060E371E080E00E94E4072D
:1010E00045C0913209F040C0803239F467E070E0C9
:1010F00080E391E00E94480839C0823209F034C090
:101100008281809337018091300190913101A091CB
:101110003201B0913301803B9440A105B10531F516
:101120008091370180FD12C087E797E7909301080F
:10113000809300082BE088E190E00FB6F894A89522
:10114000809360000FBE2093600010C088E10FB64E
:10115000F89480936000109260000FBEA8951092E2
:1011600001081092000802C080E0089581E008950F
:10117000A1E0B0E0EEEBF8E00C945C361982CE0111
:1011800001960E942808CE0101960E9434088981A8
:1011900090E02196E2E00C9478361F920F920FB601
:1011A0000F921124EF92FF920F931F932F933F936F
:1011B0004F935F936F937F938F939F93AF93BF935F
:1011C000EF93FF93CF93DF93CDB7DEB76297DEBF88
:1011D000CDBF1092E9008091E80083FFE7C068E08E
:1011E000CE010A960E949D0582EF8093E8009A85C1
:1011F00097FF05C08091E80080FFFCCF03C08EEF11
:101200008093E800892F807609F0B5C08B85811125
:1012100005C01092F1001092F100C1C0282F2D7F5F
:10122000213009F4BCC0853049F48091E80080FF8A
:10123000FCCF8C8580688093E300B1C0863009F0D4
:1012400072C02D85E888F988223071F580E090E041
:101250002A8B0E94D9070E94B80899E08E010F5F7F
:101260001F4FF801392F11923A95E9F799832A898E
:101270002A8391E09E8390E898879AEF998720913E
:10128000D1033091D203275F3F4F3C832B838D8363
:10129000C7010E94D90749E050E0B80180E00E94F0
:1012A000E4070E94B8087BC0C7012A8B0E94D907B7
:1012B0002A89223241F482E290E00E944008892B80
:1012C00009F06DC070C0213069F488899989089748
:1012D00011F42093CE038091CE03882389F061E03E
:1012E00071E016C0233009F05EC08C85882359F068
:1012F000823061F0813009F056C065E271E008C0CB
:1013000063E171E005C06FE571E002C06DE371E07B
:101310006115710509F447C0FB01449150E080E874
:101320000E94E4073CC0873009F43DC0883021F4B6
:1013300081E08093F10033C0893089F5937099F58D
:10134000EDEFF0E081E021E096E38093E900209367
:10135000EB0034913093EC009093ED008F5F319669
:10136000853099F78EE78093EA001092EA008C8529
:101370008093D30314C0888999890E94D9078E85E8
:10138000811105C0CE010A960E94610806C0823014
:1013900051F4CE010A960E948005882321F08EEF39
:1013A0008093E80003C081E28093EB0062960FB661
:1013B000F894DEBF0FBECDBFDF91CF91FF91EF91CB
:1013C000BF91AF919F918F917F916F915F914F915D
:1013D0003F912F911F910F91FF90EF900F900FBEB3
:1013E0000F901F9018958093E9008091F200882358
:1013F00019F08AE38093E800089583E00E94F309DE
:1014000008951F920F920FB60F9211242F933F93BE
:101410004F935F936F937F938F939F93AF93BF93FC
:10142000EF93FF938091E1001092E10083FF0FC0E2
:101430001092E90091E09093EB001092EC0092E39F
:101440009093ED001092D30398E09093F00082FF08
:1014500026C083E00E94F30982E00E94B20588233F
:1014600021F083EE93E00E941D068091D50388232E
:1014700039F08091D50381508093D503882369F09A
:101480008091D403882359F08091D40381508093B4
:10149000D403811104C0289A02C05D9AF1CFFF9154
:1014A000EF91BF91AF919F918F917F916F915F91DC
:1014B0004F913F912F910F900FBE0F901F90189555
:1014C0001092D30381E08093D70080EA8093D80004
:1014D00082E089BD09B400FEFDCF61E070E080E0EC
:1014E00090E00E941C0380E98093D8008CE08093F8
:1014F000E2001092E000559A209A089561E081E19F
:101500000E94D10361E081E10E9498038CB5806163
:101510008CBD8CB580648CBD61E08FE00E94980327
:1015200061E080E10E9498030895811103C08CB5A9
:10153000806202C08CB58F7D8CBD08959CB5937F71
:10154000982B9CBD08952CB5982F93702C7F922BCF
:101550009CBD9DB582FB882780F99E7F982B9DBD01
:101560000895CF93DF93FB01DA01E901853540F45B
:10157000982F990F980F908390959C93188213C081
:101580008A3A48F48555982F990F980F892F80959E
:1015900080831C9207C08A5A1082982F990F980F47
:1015A0009C9390959883DF91CF910895A0E0B0E04F
:1015B000ECEDFAE00C9450364C015B016A01FA0143
:1015C0006080712CFB01C081D0E0FC01008110E043
:1015D0009C2F8D2FC017D10714F4902F812FE92E47
:1015E000F82EE614F7040CF47301B701882777FD91
:1015F0008095982F0E940A3420E030E0A9010E94D3
:101600006B3318160CF03FC03C2F2D2F0C171D0705
:1016100014F4302F212F832F922F681679060CF4A3
:10162000C301B701681B790B0E151F055CF0CE01D5
:1016300086199709A5E0880F991FAA95E1F70E94DE
:10164000C8351CC0CE15DF056CF0C301801B910BA3
:10165000F5E0880F991FFA95E1F70E94C835605CA4
:101660007F4F0CC0C8018C1B9D0BE5E0880F991FB4
:10167000EA95E1F70E94C83560587F4F77FF05C0B3
:1016800060547F4F02C060E070E0CB01992753E0C7
:10169000880F991F5A95E1F76295669567706230D9
:1016A000D9F048F4662381F0613019F58095F40192
:1016B00080838FEF0CC06330A9F06430D1F4F40163
:1016C0008083F501108213C09FEFF4019083F50130
:1016D0008083F601108215C0F40110829FEFF5019E
:1016E00090830DC0F40110828095F50180838FEF07
:1016F00006C09FEFF4019083F50110828095F601FA
:101700008083CDB7DEB7EEE00C946C368EBD0DB4A1
:1017100007FEFDCF8EB50895CF93C82F60E08BE014
:101720000E94D1038C2F0E94860B61E08BE00E9407
:10173000D103CF910895CF93DF93D82FC62F60E0C8
:101740008BE00E94D1038D2F0E94860B8C2F0E946C
:10175000860BC82F61E08BE00E94D1038C2FDF91B4
:10176000CF91089560E085E00E949B0B08950E9450
:10177000B20B80FDFCCF089586E00E948C0B0E9486
:10178000B70B80E50E948C0B0E94B70B60E081E0F4
:101790000E949B0B0E94B70B86E00E948C0B0E945C
:1017A000B70B0895A1E0B0E0E8EDFBE00C945A36E9
:1017B000162F082F79830E94BC0B60E08BE00E94FB
:1017C000D10380E20E94860B802F0E94860B7981D4
:1017D000872F0E94860B812F0E94860B61E08BE091
:1017E0000E94D1030E94B70B84E00E948C0B0E94E0
:1017F000B70B2196E4E00C947636A3E0B0E0E3E08A
:10180000FCE00C945836F62EE82E890160E08BE05F
:101810004A835B8379830E94D10383E00E94860B15
:101820008E2D0E94860B7981872F0E94860B8F2D2B
:101830000E94860B4A81E42E5B81F52E0E0D1F1D42
:10184000E016F10639F080E00E94860BF7018193E3
:101850007F01F6CF61E08BE00E94D1032396E6E0A2
:101860000C947436A1E0B0E0E8E3FCE00C9454364C
:10187000D62EC82E8A0179012115310509F448C0F8
:1018800086E079830E948C0B60E08BE00E94D1039C
:101890008DEA0E94860B8C2D0E94860B7981872F02
:1018A0000E94860B8D2D0E94860BF80180810E947C
:1018B000860BF80181810E94860B61E08BE00E941B
:1018C000D1030E94B70BB2E0AB2EB12CAE14BF0413
:1018D000E0F460E08BE00E94D1038DEA0E94860B69
:1018E0006801CA0CDB1CF60180810E94860BF601A0
:1018F00081810E94860B61E08BE00E94D1030E94EF
:10190000B70BF2E0AF0EB11CE1CF84E00E948C0B6C
:101910002196EAE00C9470369C018091B9008E7F8C
:101920008093B9008091B9008D7F8093B90040E029
:1019300050E060ED77E080E090E00E94FE35822F7D
:10194000203130F030E02051310935952795822F34
:101950008093B8000895519A80E991E00E948C0C20
:10196000ECEBF0E080818460808308958BE590E06B
:101970002091BC0027FD03C001970097C9F7089587
:10198000882319F00E94840208958091BC008F7012
:1019900080688093BC000895409106015091070132
:1019A0006091080170910901DB01CA012DE0880FE7
:1019B000991FAA1FBB1F2A95D1F784279527A62711
:1019C000B727AC01BD0131E17695679557954795ED
:1019D0003A95D1F7482759276A277B27DB01CA01A7
:1019E000E5E0880F991FAA1FBB1FEA95D1F784274E
:1019F0009527A627B7278093060190930701A09308
:101A00000801B09309010895882319F00E94040485
:101A1000089560E086E00E94D10308950F931F931C
:101A2000CF93DF93C82F882319F161E081E00E94F2
:101A3000D103E7E3F0E03197F1F78C2F90E0F3E08A
:101A400095958795FA95E1F7CFE1D0E0C81BD90BC2
:101A500000E010E00C171D077CF460E081E00E94BC
:101A6000D10361E081E00E94D1030F5F1F4FF2CFED
:101A700060E081E00E94D103DF91CF911F910F912F
:101A80000895CF93DF93D62FC42F8F3F31F061E0BD
:101A9000811160E08DE00E94D103DF3F31F061E011
:101AA000D11160E081E10E94D103CF3F29F0CC2326
:101AB00011F05D9801C05D9ADF91CF910895A0E08B
:101AC000B0E0E5E6FDE00C945236EA0100E010E0FB
:101AD0006C01EE24D7FCE094FE2C4B01AA2497FC69
:101AE000A094BA2C0C171D079CF460E08DE00E94B6
:101AF000D103C701B6010E941C0361E08DE00E9482
:101B0000D103C501B4010E941C030F5F1F4FEACF30
:101B1000CDB7DEB7ECE00C946E3680E090E00E942A
:101B20008C3690E00895682F80E090E00E94943613
:101B3000089583EE93E00E94FE01892BD1F383EE9A
:101B400093E00E9422020895CF93DF930E94990DA3
:101B5000C82FD0E0DC2FCC270E94990D9E01282BA6
:101B6000C901DF91CF910895CF92DF92EF92FF925A
:101B7000CF93DF93EB01C82ED12CE12CF12CBCE0EC
:101B8000CC0CDD1CEE1CFF1CBA95D1F72CE030E02C
:101B9000AB01C701B6010E94FD0B80E1C80ED11C4C
:101BA000E11CF11CC882D982EA82FB828FEF8C870C
:101BB0008D878E87DF91CF91FF90EF90DF90CF9050
:101BC0000895DC0117963C911797232F220F230FBE
:101BD000269FF001279FF00D11246D917D918D912D
:101BE0009C916E0F7F1F811D911DA42FB0E0FD0100
:101BF000E30FF11D71973CF0E0E1F0E0EA1BFB0B15
:101C00002E2F220F2E0F30E0B3E04B9FA0011124A6
:101C10004C5F5C4F0E94FD0B0895A8E0B0E0E3E14B
:101C2000FEE00C9459369B01F12C0AE010E0E1E053
:101C3000F0E0EC0FFD1FEF0DF11DB8010E94C8355B
:101C4000805D8083CB01F394009789F7F90180E0F0
:101C500090E04F2D50E061E070E06C0F7D1F640F4D
:101C6000751F0197AE2FA21BAF1530F4DB01A80F33
:101C7000B91FAC91A193F5CFF901E40FF51F1082C4
:101C80002896E5E00C947536CF92DF92FF920F9381
:101C90001F93CF93DF9300D0CDB7DEB79CEBC92E57
:101CA000D12C95EAF60190836A8389830E94B60C51
:101CB0000BEB10E09EEDF801908325E8F22EF60183
:101CC000F0820E94B60C8981F8018083F601F082CF
:101CD0000E94B60C6A81F8016083F601F0820E94CE
:101CE000B60C85E9F601808380818B7F80838081BB
:101CF000846080830F900F90DF91CF911F910F919F
:101D0000FF90DF90CF900895A0E0B0E0EAE8FEE019
:101D10000C9450366C015B014A01390160E080E0AF
:101D20000E94440ECAE0D0E0C801BE010E94C8353E
:101D300090E1699F800D1124682F81E00E94440E7C
:101D4000C301BE010E94C83590E1699F800D112436
:101D5000682F82E00E94440EC401BE010E94C83573
:101D600090E1699F800D1124682F84E00E94440E49
:101D7000C501BE010E94C83590E1699F800D112404
:101D8000682F85E00E94440EC601BE010E94C8353E
:101D900090E1699F800D1124682F86E00E94440E17
:101DA000C701BE010E94C83590E1699F800D1124D2
:101DB000682F606880E00E94440ECDB7DEB7EEE089
:101DC0000C946C36ECEBF0E08081816080830895A8
:101DD000880F809378036093770340937603109283
:101DE000690381E0809368030E94E20E85EA809394
:101DF000BC000895809168038111FFCF10925403B5
:101E0000089585E0EFE4F3E0AAE4B3E001900D92D9
:101E10008A95E1F708951F920F920FB60F92112441
:101E20002F933F938F939F93EF93FF93809168033A
:101E3000882309F457C08330B9F038F4813051F069
:101E4000823049F5809177030BC0843031F08530C2
:101E500069F021C08091780303C08091780381608C
:101E60008093BB0085E80FC085EA0DC080917603A2
:101E7000813029F08091BC008F70806C04C080910B
:101E8000BC008F7080688093BC00809168038F5F76
:101E90008093680327C0E091690321E02E0F20930F
:101EA00069038091BB00F0E0E659FC4F808380918C
:101EB0007603281791F030E090E001972817390752
:101EC00029F08091BC008F70806C04C08091BC00B0
:101ED0008F7080688093BC0005C085E98093BC004A
:101EE00010926803FF91EF919F918F913F912F91F5
:101EF0000F900FBE0F901F90189583FF02C092E0C5
:101F000001C091E084FF09C080FF03C0909361038A
:101F100004C0292F21952093610385FF09C081FF0B
:101F200003C09093600304C0292F21952093600380
:101F300086FF04C082FF919590935F03089580917E
:101F40005403882309F462C09091680391119AC0E8
:101F5000843009F44FC040F48130A9F0823009F098
:101F600052C080916A034BC08630E9F1803209F09B
:101F70004AC087E0EAE6F3E0A5E5B3E001900D9200
:101F80008A95E1F740C080916A0390E0982F8827F6
:101F900020916B03822B44E0959587954A95E1F754
:101FA000909363038093620380916D0320916C038F
:101FB00090E0922B54E0959587955A95E1F7909390
:101FC00065038093640380916F0320916E0390E01A
:101FD000922B64E0959587956A95E1F79093670356
:101FE0008093660310C080916A0380935E038091A2
:101FF0006E0305C080916A0380935E0304C08093E2
:102000005D030E947D0F10925403089580915C033C
:1020100081110CC088E00E943A04892B81F489E088
:102020000E943A04892B71F182E00AC010925C038D
:1020300047E060E08FE60E94E80E80E221C081E088
:1020400090914F03981307C046E061E08CE10E9435
:10205000E80E81E015C090915103981307C045E048
:102060006EE18CE10E94E80E86E00AC09091500378
:10207000981308C041E062E28CE10E94E80E82E021
:10208000809354030895A1E0B0E0E9E4F0E10C94FA
:102090005636FCEBCF2ED12CA5EAEA2EF601E082D3
:1020A00089830E94B60C0BEB10E098E3F801908353
:1020B000B5E8FB2EF601F0820E94B60C8981F8018A
:1020C0008083F601F0820E94B60CF601E08289E37B
:1020D000F8018083F601F0820E94B60C0E9484020F
:1020E0000E94B60CF801808189830E94B60C95E9A4
:1020F000F601908390819B7F908390819460908380
:1021000089812196E8E00C947236CF92DF92FF929B
:102110000F931F93CF93DF9300D0CDB7DEB72CEB97
:10212000C22ED12C95EAF60190836A8389830E949E
:10213000B60C0BEB10E098E3F801908335E8F32E32
:10214000F601F0820E94B60C8981F8018083F601C5
:10215000F0820E94B60C6A81F8016083F601F08279
:102160000E94B60C85E9F60180830F900F90DF91F5
:10217000CF911F910F91FF90DF90CF9008958AE249
:102180000E944310682F6E7F8AE20E948510089596
:102190008AE20E944310682F61608AE20E948510E3
:1021A0000895CF93DF93EC010E94FA0E85E0FE01C3
:1021B000AFE4B3E001900D928A95E1F70E94BF1061
:1021C00060915203623021F0643011F0683031F4D4
:1021D00070E0759567957595679501C060E08EE034
:1021E0000E9485108AE20E944310682F677C20912C
:1021F0005303277088E0289F90011124622B8AE204
:102200000E94851060E481E10E94851064E183E111
:102210000E94851064E884E10E94851065E082E1F7
:102220000E9485106FE781E20E94851060E283E2E0
:102230000E94851060E284E20E94851060E285E2DF
:102240000E94851060E386E20E9485106DE086E2C0
:102250000E94851068E287E20E9485106FEF88E295
:102260000E94851069E086E20E94851060E287E2A4
:102270000E94851060E888E20E94851062E08CE28E
:102280000E94851069E18DE20E94851061E08EE276
:102290000E94851063E08FE00E94851064E18DE16B
:1022A0000E94851068E08FE10E9485106FE28FE147
:1022B0000E94851065E080E20E94851061E080E266
:1022C0000E94851080914F03882331F0C1E0813056
:1022D00009F0C0E061E002C0C0E060E0809150031E
:1022E000882321F06860813009F4C860809151032F
:1022F000882321F06062813009F4C0628DE20E947F
:1023000085106C2F8EE20E9485100E94C810DF910C
:10231000CF9108950E94FA0E8AE493E00E94D110B2
:102320000895892B19F00E943104089560E087E038
:102330000E94980360E087E00E94D1030895CF9344
:10234000C82F209114013091150130934903209337
:10235000480385E00E946304909315018093140163
:10236000CC23D9F0BC01882777FD8095982F0E9457
:102370000A3420E030E040E85AE30E94BE342DE108
:1023800034ED47EA50E40E94BE346093100170932C
:1023900011018093120190931301CF9108958F92B0
:1023A0009F92AF92BF92CF92DF92EF92FF9280E026
:1023B0000E949F110E94EC026B017C018091C70377
:1023C0009091C803A091C903B091CA032091140150
:1023D00030911501273B3340ACF0892B8A2B8B2B96
:1023E00099F5C092B703D092B803E092B903F09286
:1023F000BA03C092C703D092C803E092C903F09217
:10240000CA0322C00097A105B105F1F09601281B6F
:10241000390BC092B703D092B803E092B903F0929F
:10242000BA032031310544F0D092C403C092C303F3
:102430003093C6032093C5031092C7031092C803BC
:102440001092C9031092CA038090BF039090C003FA
:10245000A090C103B090C2038AE00E943A04892B85
:10246000E9F48091BF039091C003A091C103B091A2
:10247000C203892B8A2B8B2B89F4C092B703D0928D
:10248000B803E092B903F092BA03C092BF03D092AE
:10249000C003E092C103F092C2032FC08AE00E9401
:1024A0003A04892B51F18091BF039091C003A09110
:1024B000C103B091C203892B8A2B8B2BF1F0C6018B
:1024C00088199909C092B703D092B803E092B90372
:1024D000F092BA038031910544F0D092BC03C092CF
:1024E000BB039093BE038093BD031092BF03109271
:1024F000C0031092C1031092C203FF90EF90DF90CF
:10250000CF90BF90AF909F908F9008950E94CF1171
:102510008091BF039091C003A091C103B091C20309
:10252000892B8A2B8B2B91F78091C7039091C8033D
:10253000A091C903B091CA03892B8A2B8B2B31F749
:102540001092C6031092C5031092C4031092C303E5
:102550001092BF031092C0031092C1031092C203E5
:102560001092BE031092BD031092BC031092BB03E5
:10257000089561E087E10E94980360E087E10E948E
:10258000D103FFCFCF92DF92FF920F931F93CF9390
:10259000DF9300D0CDB7DEB75CEBC52ED12C95EA2A
:1025A000F60190836A8389830E94B60C0BEB10E0DE
:1025B00092E5F801908365E8F62EF601F0820E941C
:1025C000B60C89818068F8018083F601F0820E9450
:1025D000B60C6A81F8016083F601F0820E94B60CA5
:1025E00085E9F601808380818B7F80838081846090
:1025F00080830F900F90DF91CF911F910F91FF90EB
:10260000DF90CF900895AF92BF92DF92EF92FF924A
:102610000F931F93CF93DF931F92CDB7DEB77CEB61
:10262000A72EB12CE5EADE2EF501D08289830E9427
:10263000B60C0BEB10E092E5F8019083F5E8FF2E65
:10264000F501F0820E94B60C89818068F8018083D0
:10265000F501F0820E94B60CA5E9EA2EF501E082B0
:10266000D0820E94B60C83E5F8018083F501F082E8
:102670000E94B60C80E00E94C00C0E94B60CF801CB
:102680001081F501E08261E070E080E090E00E945E
:102690001C03F50190819B7F9083908194609083CF
:1026A000812F0F90DF91CF911F910F91FF90EF90AD
:1026B000DF90BF90AF900895682F609581E00E94F1
:1026C000C2126FEF82E00E94C21260EE8FE00E94A1
:1026D000C21263E08EE00E94C21267E180E00E94B5
:1026E000C21280E00E943A04892BD9F784E10E944B
:1026F000031390E0909347038093460385E10E9483
:10270000031390E0982F88272091460330914703C8
:10271000280F391F309347032093460386E10E9418
:10272000031390E0909345038093440387E10E9454
:10273000031390E0982F882720914403309145039C
:10274000280F391F309345032093440388E10E94EA
:10275000031390E0909343038093420389E10E9426
:10276000031390E0982F8827209142033091430370
:10277000280F391F30934303209342038AE10E94BC
:10278000031390E090934103809340038BE10E94F8
:10279000031390E0982F8827209140033091410344
:1027A000280F391F30934103209340038CE10E948E
:1027B000031390E090933F0380933E038DE10E94CA
:1027C000031390E0982F882720913E0330913F0318
:1027D000820F931F90933F0380933E032091460303
:1027E0003091470330933503209334032091440301
:1027F00030914503309337032093360320914203F1
:1028000030914303309339032093380320914003E0
:102810003091410330933B0320933A0390933D035F
:1028200080933C0360E080E00E94C212089561E062
:10283000811160E084E00E94D1030895803158F452
:10284000633048F493E0899FF0011124EC5FFC4F62
:10285000E60FF11D408308951F93CF93DF93D82F88
:10286000162FC0E0412F6D2F8C2F0E941E14CF5FBA
:10287000C031C1F7DF91CF911F910895803198F455
:10288000E82FEE0FE80FAE2FB0E0AC5FBC4F6C93BB
:10289000A1E0AE0FB0E0AC5FBC4F4C93EE5FF0E058
:1028A000EC5FFC4F20830895A3E0B0E0EAE5F4E19B
:1028B0000C9454368C01D42EFC018781869F7001C4
:1028C000879FF00C11249701A3E036952795AA95D0
:1028D000E1F76081718182819381620F731F811D95
:1028E000911D23E030E0AE014F5F5F4F0E94FD0B72
:1028F000F7E0EF22FF2481E0F82E01C0FF0CEA94FC
:10290000EAF7F801E484C584B68417811D0D1131FE
:1029100008F010E180E001E0080FE1E0F0E0EC0FEA
:10292000FD1FE80FF11DA0808F2D8A2121F02B2D96
:102930004C2D6E2D03C020E040E060E08D2D0E9404
:102940003E14D394D11630F4FF0C71F7FF24F394A6
:10295000802FE1CF2396EAE00C947036362FFC01ED
:102960005185351B5581531798F05681642F70E0BF
:10297000359F600D711D11243481313031F03831B3
:1029800039F4422F0E94E10D0895422F0E94541401
:102990000895CF93DF93EC01FB01CA016E8170E0D3
:1029A0000E94B435E60FF71F482F6081CE010E94C8
:1029B000AE14DF91CF9108950F931F93CF93DF93C0
:1029C000D82F162F042FC0E0202F412F6D2F8C2FD2
:1029D0000E943E14CF5FC031B9F7DF91CF911F91B4
:1029E0000F91089561E084E00E94D10361E08CE0E2
:1029F0000E94D10360E08CE00E94D10360E084E09B
:102A00000E94D10308955091170147E1EFEFE40FC1
:102A1000A42FB0E0AC5FBC4F2C91259F90011124F6
:102A2000E63119F00DB407FEFDCF3EBD4250F0E097
:102A3000EC5FFC4F8081859FC0011124392F3295B6
:102A40003F70207F232B0DB407FEFDCF2EBD74E019
:102A5000969587957A95E1F74F3F09F44FE20DB4CB
:102A600007FEFDCF8EBD473189F60DB407FEFDCFC1
:102A70000E94F2140895A0E0B0E0E1E4F5E10C94C6
:102A80005636F82EE62ED42EC22EC0E0D0E0082F07
:102A9000112707FD1095FE01E00FF11F70973CF420
:102AA0002E2D4D2D6C2D8C2F8F0D0E943E14F80174
:102AB000EC1BFD0BF7FD07C02E2D4D2D6C2D8F2D22
:102AC0008C1B0E943E140E9403156EE170E080E0B2
:102AD00090E00E941C032196C031D105E1F6CDB7EC
:102AE000DEB7E8E00C947236A0E0B0E0EAE7F5E18A
:102AF0000C945536D82EC62EB42EE90140E060E085
:102B000080E00E94DC14C017D10744F42B2D4C2D1B
:102B10006D2D8C2F0E943E142196F5CF0E94031537
:102B2000B701882777FD8095982F0E941C03CDB7A9
:102B3000DEB7E9E00C9471368AE08093170140E03B
:102B400060E080E00E94DC148FEF80931603109207
:102B50001703109218031092190380931A0310920E
:102B60001B0310921C0310921D0380931E0380E828
:102B700080931F0380932003809321030E940315F9
:102B800010926E0048E350E060E070E080E090E07A
:102B9000DC01E82FF42F09940895A0E0B0E0E3ED04
:102BA000F5E10C944E366C010E94861262E370E0EF
:102BB00080E090E00E941C0380E00E949F11812C25
:102BC000912C54018091C7039091C803A091C9032F
:102BD000B091CA03892B8A2B8B2B09F1AAE0EA2E2C
:102BE000F12C09E010E026E030E040E850E060E839
:102BF00070E080E090E00E9474150E94CF11B4E173
:102C0000EB2EF12C0FE010E020E030E040E050E04F
:102C100060E070E080E090E00E947415D3CFC3E0E4
:102C2000D0E06EE170E080E090E00E941C030E9422
:102C3000CF1181E00E949F118091C7039091C8033A
:102C4000A091C903B091CA03892B8A2B8B2B91F4D5
:102C50002091100130911101409112015091130106
:102C6000C501B4010E9407334B015C0121972097F5
:102C7000C1F603C0812C912C540120E030E040E4E7
:102C800050E4C501B4010E946F334B015C0120E0A8
:102C900030E0A9010E946B33882309F493CF40E010
:102CA00060E080E00E94DC14C0E0D0E00FE0BE01F4
:102CB000882777FD8095982F0E940A3420E030E025
:102CC00040E85DE30E94BE3428E636E646E65FE370
:102CD0000E94BE342AE939E949E550E40E940733ED
:102CE0002B013C019B01AC01C501B4010E94BA3427
:102CF00018160CF049C02AE939E949E650E4C30145
:102D0000B2010E94BA341816C4F42AE939E949E636
:102D100050E4C301B2010E94063320E030E04FE7E7
:102D200053E40E94BE3428E636E646E25FE30E94A2
:102D30006F330E94D733162F01C010E02AE939E91A
:102D400049E750E4C301B2010E946B3387FF15C00D
:102D5000A30192016AE979E989E790E40E940633C8
:102D600020E030E04FE753E40E94BE349B01AC0109
:102D70000E9407330E94D73301C060E020E0412F5A
:102D8000802F8C1B0E943E141C141D0444F40E94CE
:102D900003156CE070E080E090E00E941C03219637
:102DA000C031D10509F083CF0E94031564E670E0BD
:102DB00080E090E00E941C038091D90080FF12C047
:102DC00086E10E943A0410923103892B31F08FEF93
:102DD000809332031092330305C0109232038FEFB9
:102DE000809333030E940315D7FE2CC0D194C19465
:102DF000D108C0E0D0E00E94CF118091C70390912C
:102E0000C803A091C903B091CA03892B8A2B8B2BCD
:102E100031F48AE00E943A04892B09F04EC0C0E0E8
:102E200020E040E060E08C2F0E943E140E940315D9
:102E30006CE070E080E090E00E941C03CF5FC03146
:102E400079F71EC064E670E080E090E00E941C0309
:102E5000C0E0D0E0CC15DD059CF40E94CF1180913C
:102E6000C7039091C803A091C903B091CA03892BED
:102E70008A2B8B2B29F48AE00E943A04892B49F58E
:102E800040E060E080E00E94DC140E940315C0E096
:102E9000D0E00E94CF118091C7039091C803A09108
:102EA000C903B091CA03892B8A2B8B2BD1F48AE0FA
:102EB0000E943A04892BA9F026C064E170E080E00A
:102EC00090E00E941C036496CC15DD050CF493CFB2
:102ED000A6CF64E170E080E090E00E941C0364965D
:102EE000B9CFC536D1053CF040E860E880E80E94E3
:102EF000DC140E94031521966AE070E080E090E007
:102F00000E941C03C6CF0E948612CDB7DEB7E0E157
:102F10000C946A3660E086E00E94D10360E081E0B4
:102F20000E94D1030E948D0D2091CB033091CC03E0
:102F30008217930719F0C9010E94930D0E94CF11C7
:102F4000812C912C54018091C7039091C803A091CA
:102F5000C903B091CA03892B8A2B8B2B79F1C50148
:102F6000B4010E94213520E030E040E252E40E94AA
:102F7000BE3426E636E646EA5FE30E9407330E9447
:102F8000D733CB0177FF02C080E090E01AE0E12E5A
:102F9000F12C0CE010E024E030E0AC01BC010E9418
:102FA00074152AE037ED43E25DE3C501B4010E94E8
:102FB00007334B015C010E94CF11C5CF8CE09EEF1F
:102FC0000E94CD150E94B912A5E0B0E0EAEEF7E14B
:102FD0000C944C368091C7039091C803A091C9030B
:102FE000B091CA03892B8A2B8B2B09F430C10E9424
:102FF000EC020091C7031091C8032091C9033091DE
:10300000CA03601B710B820B930B693572408105FB
:10301000910508F41CC10E94010F81E089831A8286
:103020001B8282E08C831D82CE0101960E94D1100A
:103030008FEF8093170104E6802E912CA12CB12CE8
:1030400022242A94322CC12CD12C76019EE3492EC5
:10305000512C612C712C61E070E080E090E00E94C6
:103060001C030E94CF118091C7039091C803A091C7
:10307000C903B091CA03892B8A2B8B2B39F41814FE
:1030800019043CF431E0831A910803C0F4E68F2E52
:10309000912C0E949F0FADE3B0E0A70196010E9422
:1030A0003936209162033091630304EF11E0021B73
:1030B000130B222717FD2095322F600F711F821FDF
:1030C000931FA30192010E94FE3569017A01CA0192
:1030D000B90123E230E040E050E00E94FE352B3F92
:1030E0008FEF3807ACF037FD06C02F3031052CF0DC
:1030F0002FE030E002C020E030E0F901E85EFE4F52
:10310000008110E00115110509F05CC0A12CB12C63
:1031100040E060E080E00E94DC14EFEFAE1ABE0AEF
:10312000C50191708F3F910531F028F02FEF31E00C
:10313000281B390BC9019C0143E0369527954A9518
:10314000E1F7209310032093110320931203AC01A5
:10315000569547955695479540931303409314030E
:1031600040931503BC0176956795609316036093B1
:103170001703609318038093190380931A038093B5
:103180001B0380931C0380931D0380931E03609395
:103190001F03609320036093210340932203409315
:1031A0002303409324032093250320932603209395
:1031B00027030E9403158BE891E00197F1F700E0E7
:1031C00010E02BC02016310631F128E1A22E21E0BB
:1031D000B22E3FE0332EF50161915F01209116017F
:1031E000862F90E00817190734F0261708F4622F8D
:1031F000262F462F03C020E040E060E0832D0E9490
:103200003E143A94FFEF3F12E6CF0E9403158BE87D
:1032100091E00197F1F7A12CB12C8114910411F0E8
:10322000180119CF0115110511F40E948A17009396
:10323000170181E08093B6030E94861240E060E0AF
:1032400080E00E94DC140E9403150E948A112596DA
:10325000E2E10C946836CF93DF93D82FC62F40E07D
:1032600060E080E00E94DC140E9403150E94FA0EC8
:10327000CC2319F08FEF0E9404048D2F90E00E9460
:103280005C13CC2319F080E00E94040DDF91CF91F4
:103290000895A0E0B0E0EFE4F9E10C945436EC01BD
:1032A0008B015A0140E060E080E00E94DC140E9443
:1032B00003150E94FA0E8FEF0E9404048AE090E04A
:1032C0000E945C1380E00E94040DA0914403B09121
:1032D0004503C0904203D0904303CA16DB060CF4AA
:1032E0006D018091400390914103C816D9060CF4FA
:1032F0006C01EE24D7FCE094FE2C2FEF30E00E940E
:103300003236A70196010E94FE352883A091420320
:10331000B09143032FEF30E00E943236A7019601AF
:103320000E94FE35F8012083A0914003B091410333
:103330002FEF30E00E943236A70196010E94FE3541
:10334000F5012083A501B801CE010E94D60ACDB7B0
:10335000DEB7EAE00C94703661E08FE00E949803DB
:1033600061E080E10E94980361E084E00E94D10363
:1033700061E084E00E94980361E084E00E94D10350
:1033800061E08CE00E9498030E947E0A81E00E9426
:10339000950A80E00E949E0A84E00E94A30A40E011
:1033A00060E080E00E94DC140E94031581E00E942E
:1033B00017140895A0E0B0E0E0EEF9E10C94573660
:1033C000182FF62ED42ED21AC42FD1E0CD1569F0C5
:1033D0008D2F812311F0402F01C04E2D6F2D8C2F8A
:1033E0000E941E14DD0FC150F1CFCDB7DEB7E7E06C
:1033F0000C947336A0E0B0E0E0E0FAE10C945236B1
:103400004A01122FC82FD0E06A01EE24D7FCE094C5
:10341000FE2CA62EB12C60E0812F0E942C14402F90
:10342000612F8C2F0E941E140E9403158114910499
:1034300021F0C701B6010E941C03CA15DB0514F474
:10344000219601C02197CA15DB0529F760E0812F7D
:103450000E942C14402F612F8C2F0E941E140E945A
:103460000315CDB7DEB7ECE00C946E36A0E0B0E00B
:10347000ECE3FAE10C944E36782E662E5A01522E69
:103480004E2C681710F41FEF01C011E0170D872CA8
:10349000C72D6501EE24D7FCE094FE2CD0E0912CE2
:1034A00040E060E080E00E94DC14242D402F652D78
:1034B0008C2F0E943E140E940315A114B10421F028
:1034C000C701B6010E941C03C815D90514F4219642
:1034D00001C02197C815D90519F7E12FF0E0CE17E3
:1034E000DF0799F4161519F0872CC12FD7CF761462
:1034F00018F48824839402C088248A94870C861444
:1035000079F0C62D162D782CC9CF161103C0812E47
:10351000C72DC4CF161510F41F5FF9CF1150F7CF88
:1035200040E060E080E00E94DC14242D402F652DF7
:103530008C2F0E943E140E940315CDB7DEB7E0E148
:103540000C946A368F929F92AF92BF92CF92DF9285
:10355000EF92FF920E94EC026B017C0190910D01B1
:103560009E3F68F48091E502890F80930D018F3FA3
:1035700021F09091E7028917B0F08EEF12C0809190
:10358000F8029091F902A091FA02B091FB028C50DE
:103590009E4FAF4FBF4F8C159D05AE05BF051CF468
:1035A0008FEF80930D0180910F01811184C0909164
:1035B000ED0280910C01911140C080FF7CC02091F0
:1035C0000A0130910B014091E7028090EE02909049
:1035D000EF028091F2029091F302880E991E959469
:1035E0008794AA2497FCA094BA2C80910003909110
:1035F0000103A0910203B0910303880E991EAA1E35
:10360000BB1EA42FB0E00E942336BB2797FDBA95BE
:10361000A92F982F872F881A990AAA0ABB0A8C14F7
:103620009D04AE04BF040CF046C081E080930F01FE
:10363000415040930D018FEF3CC081FF3CC0209171
:103640000A0130910B014091E7028090F0029090C6
:10365000F1028091F2029091F302880E991E9594E6
:103660008794AA2497FCA094BA2C8091FC02909194
:10367000FD02A091FE02B091FF02880E991EAA1EC3
:10368000BB1EA42FB0E00E942336BB2797FDBA953E
:10369000A92F982F872F881A990AAA0ABB0A8C1477
:1036A0009D04AE04BF043CF481E080930F011092AE
:1036B0000D018093E50280915E03882309F45DC0CB
:1036C000C092F802D092F902E092FA02F092FB0264
:1036D00083FF50C09091ED0282FF26C0992309F428
:1036E00049C0C092F402D092F502E092F602F09244
:1036F000F702C0920003D0920103E0920203F0921D
:1037000003038091FC029091FD029601281B390B66
:103710003093F1022093F0021092ED0210920F010B
:1037200010920E0181E024C0911124C0C092F402D5
:10373000D092F502E092F602F092F702C092FC02FB
:10374000D092FD02E092FE02F092FF02809100030F
:10375000909101039601281B390B3093EF022093BF
:10376000EE0281E08093ED0210920F0110920E01A3
:103770008093E60210925E0324C080910E018111B5
:1037800020C08091F8029091F902A091FA02B091C4
:10379000FB02AC01BD01485F5F4F6F4F7F4F4C157F
:1037A0005D056E057F056CF42091F4023091F50201
:1037B000821B930B9093F3028093F20281E080933B
:1037C0000E018091EC028F5F8093EC028F37A8F09E
:1037D0008091E8029091E9029601281B390B309301
:1037E0000B0120930A01C092E802D092E902E09214
:1037F000EA02F092EB021092EC02FF90EF90DF9061
:10380000CF90BF90AF909F908F900895AAE2B0E0C4
:10381000ECE0FCE10C944C3683EE93E00E94FE0158
:10382000892B09F4BBC140E060E084E10E94DC1414
:103830000E94031561E070E080E090E00E941C03AC
:103840008E010F5F1F4FF12C83EE93E00E94FE016B
:10385000892BB1F4E1E0F0E0EC0FFD1FEF0DF11D5D
:10386000108267EA71E0CE0101960E948336892BAF
:1038700059F462EB71E083EE93E00E94B30404C05C
:10388000BFE1FB127CC1E6CF6EED71E0CE01019687
:103890000E948336892B19F40E949C1566C16AEE3A
:1038A00071E0CE0101960E948336892B09F04AC04F
:1038B00081E09091E202911180E08093E20240E089
:1038C00060E00E94410D65EA71E083EE93E00E94A2
:1038D00094044AE050E061E070E083EE93E00E94DF
:1038E000370565EA71E083EE93E00E94940465EA8F
:1038F00071E083EE93E00E9494044AE050E063E0BC
:1039000070E083EE93E00E94370565EA71E083EE94
:1039100093E00E9494044AE050E066E070E083EE99
:1039200093E00E94370565EF71E083EE93E00E941B
:1039300094044AE050E06091E20283EE93E00E943A
:10394000690513C167E072E0CE0101960E948336DB
:10395000892B09F0F7C00E94990D182F0E94A40D21
:103960004C01A12CB12CB501A401ECE07695679532
:1039700057954795EA95D1F7342E9F70892B19F00A
:1039800033243394340E1123B1F0832D90E0810F52
:10399000911D8F3F91057CF4C12ED12CE12CF12C8F
:1039A0003CE0CC0CDD1CEE1CFF1C3A95D1F7260147
:1039B000370100E003C064E172E0D3C0031551F0A9
:1039C000C301B2010E94D20B0F5FE0E15E0E611CE9
:1039D000711CF4CF0E94EC0269A37AA38BA39CA371
:1039E000412C512C320122242A94481459046A048F
:1039F0007B0408F040C09E012F5F3F4FB301A2013E
:103A000000E0481559056A057B05C0F429A73AA7C7
:103A10004DA35EA36FA378A70E94990D29A53AA58F
:103A2000D9018D939D010F5F4DA15EA16FA178A576
:103A30004F5F5F4F6F4F7F4F003219F700FF08C095
:103A4000E1E0F0E0EC0FFD1FE00FF11D20820F5FC1
:103A5000202F30E0C301B2016C0D7D1D8E1D9F1D16
:103A6000AE014F5F5F4F0E94320CB0E24B0E511C13
:103A7000611C711CBACF0E94EC022B013C0120E2B8
:103A800030E0AE014F5F5F4FC701B6010E94FD0BF2
:103A9000B301A20189A19AA1ABA1BCA1481B590BFA
:103AA0006A0B7B0B2AE030E083EE93E00E94010575
:103AB0006AE372E083EE93E00E9494044AE050E0EF
:103AC000612F83EE93E00E9461056BE472E083EE68
:103AD00093E00E9494044AE050E0632D83EE93E06B
:103AE0000E94610564E572E083EE93E00E94940415
:103AF0002AE030E0B501A40183EE93E00E94520574
:103B000065EA71E083EE93E00E9494047E0191E205
:103B1000E90EF11C8E010F5F1F4FD8016D918D01D1
:103B200040E150E083EE93E00E9461056CE572E0B5
:103B300083EE93E00E9494040E151F0571F76EE565
:103B400072E00FC062E672E083EE93E00E9494049C
:103B5000BE016F5F7F4F83EE93E00E9494046FE697
:103B600072E083EE93E00E94B3040E94861240E06C
:103B700060E080E00E94DC140E9403150FC083EE19
:103B800093E00E9422028A3009F464CE8D3009F459
:103B900061CEF394D8018D938D0156CEAA96E2E1C1
:103BA0000C946836CF92DF92EF92FF920F931F939F
:103BB0000E94CF110E94061C0E94EC020091BF03DC
:103BC0001091C0032091C1033091C203011511056A
:103BD00021053105B9F06B017C01C01AD10AE20A56
:103BE000F30A41EDC41647E0D406E104F10454F0B1
:103BF0001092BF031092C0031092C1031092C2032F
:103C000080E024C00091B7031091B8032091B9035C
:103C10003091BA03DC01CB01801B910BA20BB30BDB
:103C2000813E9349A440B10574F08091D90080FD94
:103C30000AC04AE050E062E370E082E390E00E9454
:103C40005F0D0E948A170E94E41781E01F910F9177
:103C5000FF90EF90DF90CF900895A5E3B0E0E3E30D
:103C6000FEE10C9453366C01962E7A0141155105F4
:103C700021F4F7EAEF2EF3E0FF2E911028C0809197
:103C8000BD039091BE03892B09F0A8C08091C503A4
:103C90009091C603892B09F0A1C08091BF03909138
:103CA000C003A091C103B091C203892B8A2B8B2B37
:103CB00009F094C08091C7039091C803A091C903F3
:103CC000B091CA03892B8A2B8B2B09F087C0DE01A8
:103CD0001196E4E0F3E081918D9383E0E433F807FB
:103CE000D1F7F6018F010C191D0981918111FACFCD
:103CF00080E8F701848785878FEF86870E94010F10
:103D000019AA1AAA81E08BAB82E08CAB8DAB5E0165
:103D1000F1E3AF0EB11CC5010E94D110F7018681FD
:103D2000880F809F002D11240093E70291100E94BC
:103D300086120E94D21D882361F08091BF0390916A
:103D4000C003A091C103B091C203892B8A2B8B2B96
:103D500029F0A4E0B3E0FE0131960EC00091C70344
:103D60001091C8032091C9033091CA0301151105B0
:103D70002105310579F0EDCF81918D93EA15FB0591
:103D8000D9F70E9403150E948A11992039F10E94E7
:103D9000861224C00E949F0F0E94A21A40910D011A
:103DA0004F3F81F04E3F41F0469550E020E0B60194
:103DB000C7010E94C9140FC040E060E080E00E948B
:103DC000DC1409C0A4E0B3E0FE01319681918D932B
:103DD000EA15FB05D9F70E940315ABCFE596EBE09A
:103DE0000C946F36A0E0B0E0E8EFFEE10C9453369F
:103DF000EB018C0140E025E030E0FF24FA94A0E1E3
:103E0000EA2E009791F1B9010E94B435A82FCB0199
:103E1000542F652F641B6A1718F0452FA51B13C07C
:103E20005031D9F3FE01E50FF11DF082108A10A286
:103E30005F5FEFCF403169F0FE01E40FF11D1082AA
:103E4000108AE0A24F5F5A2F540F543099F7403137
:103E500011F440E10AC0FE01E40FF11D1082108A46
:103E600010A24F5F403169F6F4CF403140F4FE01BB
:103E7000E40FF11D1082108A10A24F5FF6CF7E0171
:103E8000912C5E0180E1A80EB11C6E01E0E2CE0E25
:103E9000D11CA7014C1B5D0BF70121917F01DA01B9
:103EA000AA0DBB1DFA01EC0DFD1D4C916081892D01
:103EB0000E943E149394F0E19F12EBCF0E940315F1
:103EC000ECE3F1E022E030E0CAE0D0E001151105BA
:103ED00051F0C801BE010E94C835805D82938B01FC
:103EE00021503109F3CF80E237FD07C0F901E75CCB
:103EF000FE4F808321503109F7CF20E030E040E0D1
:103F000050E061E089E391E00E942D1ECDB7DEB75D
:103F1000EBE00C946F36A6E7B0E0E1E9FFE10C942A
:103F20004C3681E090E00E948C36082F10E0109310
:103F3000E4020093E30282E090E00E948C36282F96
:103F400030E0322F2227200F311F3093E4022093DC
:103F5000E30281E0A2968FAFA297A3961FAEA3972C
:103F6000A4961FAEA49782E0A5968FAFA597A696BC
:103F70001FAEA697CE018F599F4F0E94D11080E0AF
:103F800090E03E0121E3620E711CF301B096E496CD
:103F9000FFAFEEAFE4978330910584F4FE01E7595B
:103FA000FF4FE80FF91F20E82083E6E6F0E0EC0F72
:103FB000FD1FE80FF91F10820196EDCFE2E08E2E73
:103FC000412C512CAE961FAEAE97AD961FAEAD975D
:103FD000F0E89F2E01E010E043940E949F0F1092A2
:103FE000C6031092C5031092BE031092BD030E9437
:103FF000D21D882309F42FC2809164039091650338
:10400000AD963FADAD97830F911D37FD9A958C39D5
:104010004FEF940734F0853691054CF062E032E3BF
:1040200002C061E03EECAD963FAFAD9704C060E0EA
:10403000AD961FAEAD979C012F573F4F2B333105E7
:1040400020F431E0AE963FAFAE979C0124573F4F2E
:104050002135310518F0AE961FAEAE979C0127545E
:1040600031092B33310510F455245394CC97813505
:10407000910508F0512C80E3F30111928A95E9F73C
:10408000392C32942FE03222232D30E0889CA0017D
:104090001124440F551F849EC001859E900D11244C
:1040A0000296F301E20FF31F808361110EC0E1E479
:1040B000F0E0EC0FFD1FE20FF31F8083E1E5F0E07D
:1040C000EC0FFD1FE20FF31F80839E012A593F4F23
:1040D0007901CE0187599F4F5C01C12CD12C262F2D
:1040E00030E0E0963FAF2EAFE097542D53703FEF96
:1040F00090E8292EE0968EAD9FADE0970196E2966E
:104100009FAF8EAFE297F7018081882309F407C142
:10411000E0968EAD9FADE097C816D90671F00530D8
:10412000110508F042C0E296EEADFFADE297CE1663
:10413000DF0619F001151105C1F5F5012081229561
:104140002F70822F90E0E1E4F0E0EC0FFD1FE80F0C
:10415000F91F3083E1E5F0E0EC0FFD1FE80FF91FD8
:104160004081411117C0AE964FADAE97442329F060
:1041700042E0C416D10409F02082552059F0B6015E
:104180006D7F672B39F4E1E5F0E0EC0FFD1FE80FE0
:10419000F91F2082231199C0F7011082F2E0F8156F
:1041A00008F083940F5F1F4F90C0F5012081229586
:1041B0002F70231161C0F70110828A9401F140E051
:1041C00060E08FEFE5962FAFE597E7963FAFE79773
:1041D000E6965FAFE6970E94DC140E9403156CE33D
:1041E00070E080E090E00E941C03E5962FADE5971B
:1041F000E7963FADE797E6965FADE6973DC02FEFB8
:1042000040E060E0832D0E943B158091E302909195
:10421000E4028017910708F52FEF40E06FEF87E089
:104220000E943B152FEF4FEF60E087E00E943B15A7
:1042300020E04FEF60E087E00E943B151093E4021E
:104240000093E302602F81E090E00E949436609139
:10425000E40282E090E00E949436BE016F5F7F4FDF
:10426000C8010E94F21E20E040E060E087E00E946A
:104270003B1580E090E08FCE822F90E0E1E5F0E00A
:10428000EC0FFD1FE80FF91F3083E1E4F0E0EC0FC5
:10429000FD1FE80FF91F2081211117C0AE962FAD29
:1042A000AE97222329F042E0C416D10408F42082FC
:1042B000552059F0B6016D7F672B39F4E1E4F0E049
:1042C000EC0FFD1FE80FF91F2082511128C0F701E4
:1042D0008081181684F4F501608170E0EFEFF0E062
:1042E000E81BF10987FDF395E617F70724F4F701BA
:1042F00010820F5F1F4FF701808187FF09C08195F2
:10430000F5019081981720F4F70110820F5F1F4F7D
:10431000F5018081F7019081890FF5018083FFEF1E
:10432000CF1ADF0A2FEFE21AF20A4FEFA41AB40AEB
:1043300083E0C816D10409F0E6CE8091C5039091C0
:10434000C603892B31F48091BD039091BE03892B64
:1043500069F020E04FEF60E0832D0E943B15BE0125
:104360006F5F7F4FC8010E94F21E36CEE496AEAC5E
:10437000BFACE497630190E1C90ED11C7301312CED
:10438000F50161915F01F60141916F01F701219102
:104390007F01832D0E943E143394F0E13F12F0CF51
:1043A0000E9403150E94CC0CC82ED12C23E0C2160B
:1043B000D1049CF586E6E82EF12CEC0EFD1EEC0CEB
:1043C000FD1CF7018081811128C00E94CC0C8370F4
:1043D000B82EF70180830E94CC0C80FF0BC0FFE257
:1043E000F91558F4E9E6F0E0EC0FFD1FEC0DFD1DAA
:1043F000108213C02FED2915A8F3E9E6F0E0EC0FC9
:10440000FD1FEC0DFD1D8FEF8083E6E6F0E0EC0F65
:10441000FD1FEC0DFD1DB194B0826AE070E080E0FC
:1044200090E00E941C03809162039091630397FDCA
:104430000F96B4E095958795BA95E1F7813191058E
:104440001CF030E1930EC8CD803F4FEF94070CF481
:1044500080EF980EC1CDCA58DF4FE2E10C94683668
:10446000A0E0B0E0E6E3F2E20C944C367C01CB0134
:104470004A01B7010E94C835EC0107E0202E312C1B
:10448000270121E0421A5108CE01B1010E94C8352E
:10449000019680FF04C0C0901701D12C02C0C12C2E
:1044A000D12C81FF04C0A0901701B12C02C0A12C17
:1044B000B12C82FF04C060901701712C02C0612CE6
:1044C000712C00E010E00C171D0721F4262D4A2D59
:1044D0006C2D03C020E040E060E0802F0E943E147D
:1044E0000F5F1F4F0031110571F70E9403150E94E5
:1044F000D21DFE01EE0FFF1FE80DF91D20E030E098
:1045000040E050E060E0808191810E942D1E80910A
:10451000C5039091C603892B79F0209711F482018D
:1045200006C0CE010197B7010E94C8358C011092D8
:10453000C6031092C50301C08E018091BD03909106
:10454000BE03892B51F0C8010196B7010E94C835FE
:104550008C011092BE031092BD038091BF03909115
:10456000C003A091C103B091C203892B8A2B8B2B6E
:10457000D1F10E94EC022091BF033091C003409121
:10458000C1035091C203621B730B840B950B6732FE
:1045900072408105910538F1B4E0EB2EF12C609169
:1045A0001701262F462F8C2F0E943E140E940315C0
:1045B00062E370E080E090E00E941C0320E040E0B5
:1045C00060E08C2F0E943E140E94031562E370E0AD
:1045D00080E090E00E941C0381E0E81AF108E114F9
:1045E000F104E9F602C0E8014FCFC801CDB7DEB74C
:1045F000E2E10C946836A0E2B0E0E1E0F3E20C9472
:104600004C368FEF8F8F8E8F8D8F85E1EFE3F1E04A
:10461000DE01119601900D928A95E1F785E0E4E5BF
:10462000F1E0DE01569601900D928A95E1F71C8E1D
:104630001B8E21E028A3712C612C812C912C54011C
:1046400024EFC22EDD24D3940E94D21D882309F4C6
:10465000DEC084E090E00E945C1300913E03109164
:104660003F03C016D1060CF46801A5019401C501F1
:10467000B4010E9407334B015C01B801882777FD24
:104680008095982F0E940A349B01AC01C501B401AA
:104690000E94073320E030E040E450E40E946F3392
:1046A0004B015C01611026C020E030E040E851E49D
:1046B0000E94BE341B012C01B601882777FD80952E
:1046C000982F0E940A349B01AC01C201B1010E94E3
:1046D0006F339B01AC0160E070E080E891E40E94E0
:1046E00006330E94D7339B01603171052CF02FE017
:1046F00030E002C020E030E04D8D50E0EE8DF0E083
:104700008F8DEE24E394F12C00E110E0BF0190E0E6
:104710000E947415662049F020E030E040E050E04F
:1047200060E0CE0146960E942D1E8091BD039091BF
:10473000BE030097D9F18732924084F088A191E0BE
:10474000892788A34FEF6FEF8FEF0E94DC146AE098
:1047500070E080E090E00E941C0324C028A1222386
:1047600059F0AE01435E5F4FBE01625E7F4FCE01E6
:104770004F960E9449190DC060E084E60E942B19F3
:10478000809144038F8F809142038E8F80914003EC
:104790008D8FBE016A5E7F4F8091460390914703E3
:1047A0000E940D0E1092BE031092BD038091C503AE
:1047B0009091C603892B09F447CF87E0781601F161
:1047C00023E0729EC0011124E1E0F0E0EC0FFD1F38
:1047D000E80FF91F20812F8FE2E0F0E0EC0FFD1FC2
:1047E000E80FF91F20812E8FE3E0F0E0EC0FFD1FB2
:1047F000E80FF91F80818D8F73946624639402C043
:10480000712C612C1092C6031092C5031DCF80E05D
:104810000E94040D60E080E00E94C212A096E2E1D6
:104820000C946836AEE1B0E0E8E1F4E20C944C366A
:104830001B8A1C8A82E08D8B8E8B8F8BCE014396D8
:104840000E94D11089E0E1E7F2E0DE011A960190C2
:104850000D928A95E1F789E0EAE7F2E09E012F5F89
:104860003F4F398F288FD90101900D928A95E1F73A
:1048700080919E038295807F8093E702912CA12CEA
:10488000B12CC12CD12C8CE3282E312CCE010A96D0
:104890009B8F8A8F9FEFC91AD90A0E94D21D882345
:1048A00009F495C20E949F0F0E94A21AA114B1049C
:1048B00009F098C0C60164E670E00E94B435892B07
:1048C00021F4E1E0E0935C038DC0A0915503709169
:1048D000560390915703F091590340915A03609108
:1048E0005B03292F30E054E0359527955A95E1F781
:1048F000822F8770805D8A87392F3F7080E3830F16
:104900008B87872F90E0E4E095958795EA95E1F70E
:10491000E82FE77080E38E0F8D877F7080E3870F2D
:104920008E878A2F90E0B4E095958795BA95E1F748
:10493000B82FB77080E38B0F888BAF7080E38A0F3E
:10494000898B862F90E014E0959587951A95E1F76D
:104950008770805D8983162F1F7080E3810F8A83A3
:10496000842F90E054E0959587955A95E1F7982F1C
:104970009170905D9C83942F9F7040E3490F4D830D
:104980004F2F50E0689413F8559547951694E1F72A
:10499000437050E3540F5F83FF7050E35F0F5887FD
:1049A0006A2E5AE0B59F600C1124572E5AE0E59FFD
:1049B000500C11242370432EEAE02E9F400C11244A
:1049C0008F2E2AE0429F800C11248370792E3AE0CA
:1049D000839F700C112462956F705AE0659F100DD3
:1049E00011241C8F40910D014F3F09F45FC04E3FD1
:1049F00009F449C0469550E060919E03862F90E0EF
:104A0000880F991F4817590734F41092A403109285
:104A1000A5038FEF0CC083E0689F9001112442171B
:104A2000530744F48FEF8093A4038093A5038093EE
:104A3000A6031BC095E0699F9001112442175307FC
:104A400034F41092A4038FEF8093A5030CC0E6E02A
:104A50006E9FC00111244817590724F38FEF8093EC
:104A6000A4031092A5031092A60321E0921203C0A2
:104A7000688D798D02C06A8D7B8D20E088E993E096
:104A80000E94C91405C040E060E080E00E94DC1490
:104A90000E9403158091BD039091BE03892B09F4F8
:104AA000F9CE9394392D3170932E8CC140E060E0A3
:104AB00080E00E94DC14C6016CE271E00E94B43513
:104AC00011E08639910508F010E051E0951234C0EC
:104AD000112321F081E0A816B10411F0E12C02C0ED
:104AE000B0E2EB2E0FEF25E04FE060E0882D0E9452
:104AF000DA19112321F092E0A916B10411F0E12C8A
:104B000002C0A0E2EA2E0FEF24E04AE061E0872D28
:104B10000E94DA19112321F0E3E0AE16B10411F07E
:104B2000E12C02C0F0E2EF2E0FEF27E046E062E05A
:104B30008C8D0E94DA1946C022E0A216B104B1F0B1
:104B4000112321F031E0A316B10411F0E12C02C0D1
:104B5000E0E2EE2E0FEF26E04FE060E0862D0E94AF
:104B6000DA1951E0A516B10431F413C0112319F07C
:104B700070E2E72E01C0E12C0FEF26E04FE061E08C
:104B8000852D0E94DA19112321F083E0A816B104C3
:104B900011F0E12C02C060E2E62E0FEF26E048E0C3
:104BA00062E0842D0E94DA19A114B10421F4862D4B
:104BB0008170819501C08FEF80931F038093200344
:104BC000809321030E9403158091C5039091C60331
:104BD000892B09F44BC0911025C092E0A916B104AD
:104BE00041F4852D90E0CB96B1010E94C835582E36
:104BF00039C0E1E0AE16B10441F4862D90E0CB96C9
:104C0000B1010E94C835682E2DC023E0A216B10460
:104C100049F5842D90E0479668E170E00E94C83520
:104C2000482E20C032E0A316B10429F47A94D1F4BE
:104C30005CE0752E17C051E0A516B10429F48A94E2
:104C400089F44FE1842E0EC083E0A816B10451F41C
:104C5000EC8D8E2F90E08D599F4F64E670E00E949E
:104C6000C8358C8F1092C6031092C5038091BD0386
:104C70009091BE03009709F40DCE873292400CF458
:104C800048C0A114B10469F1C50101979E8F8D8FB1
:104C9000C5018B7F019709F090C0E62CF12C052D02
:104CA00010E0242D30E0482D50E0672D70E0EC8DB1
:104CB0008E2F90E00E94840E4FEF6FEF8FEF0E94D7
:104CC000DC140E94031568EC70E080E090E00E9424
:104CD0001C0340E060E080E00E94DC140E940315A9
:104CE0006CC04FEF6FEF8FEF0E94DC140E94031532
:104CF00068EC70E080E090E00E941C0340E060E01F
:104D000080E00E94DC140E94031533E0A32EB12C36
:104D100059C0A114B10409F44BC0911025C022E080
:104D2000A216B10441F4852D90E00196B1010E94D4
:104D3000C835582E47C031E0A316B10441F4862D82
:104D400090E00196B1010E94C835682E3BC053E047
:104D5000A516B104B9F5842D90E0019668E170E0E4
:104D60000E94C835482E2EC082E0A816B10439F43E
:104D700073949CE0971520F57724739421C0E1E0AB
:104D8000AE16B10439F483942FE12815C8F48824B1
:104D9000839416C033E0A316B10491F45C8D852F83
:104DA00090E0019664E670E00E94C8358C8F08C0E0
:104DB0009394892D8170982E05C0AD8CBE8C02C055
:104DC000992493941092BE031092BD0363CD6E9606
:104DD000E2E10C946836A8E1B0E0E1EFF6E20C9471
:104DE0004D3682E1EBE5F1E0DE01119601900D9286
:104DF0008A95E1F78FEF809317011B8A81E08C8BF6
:104E00001D8A82E08E8B1F8ACE0143960E94D110AC
:104E1000612C412C4AE0C42ED12C312C712C9FE006
:104E20005524539456E0A52EB12C411022C088245D
:104E30008394912C8C0E9D1E23E0329E800C911C3D
:104E40001124E12CF12CF401EE0DFF1D208130E046
:104E50000FEF10E0A601672D892F988F0E94FA1995
:104E60008FEFE81AF80A988D23E0E216F10459F75B
:104E70004EC0EE24EA940FEF2FEF41E050E0672D93
:104E8000892F0E94361A4424439441C00E94D21DA7
:104E9000882309F46DC00E949F0F8091C5039091F3
:104EA000C603892B31F11092C6031092C5034FEF50
:104EB0006FEF8FEF0E94DC140E94031562E070E038
:104EC00080E090E00E941C0340E060E080E00E94EF
:104ED000DC142FEF4FEF6FEF872D0E943E140E94DE
:104EE00003154394842D8170482E10925D035092D7
:104EF000B6038091B603882351F02FEF4FEF6FEF89
:104F0000872D0E943E140E9403151092B6038091D3
:104F1000BD039091BE03009709F4B8CF863292404A
:104F200044F482E3C816D10454F49FEFC91AD90A95
:104F300006C01C141D041CF421E0C21AD1081092F2
:104F4000BE031092BD03832D90E00196B5010E942F
:104F5000C835382E81E0860D982F9170692E80FF1C
:104F600004C03FE0732E90E060CF712C9FE05DCFD6
:104F70006896E1E10C946936EF92FF920F931F93CC
:104F8000CF93DF9381E08093B603F09017018FEF0A
:104F90008093170100E010E0C0E0D0E0EE24E3943D
:104FA0000E94D21D811113C00E94040D80E00E9456
:104FB0000E0D40E060E080E00E94DC140E940315CA
:104FC000F0921701CDB7DEB7E6E00C94743680910D
:104FD000BD039091BE03892B31F12196C370DD276B
:104FE0001092BE031092BD03E092B603C801019671
:104FF0008C010370112780FF02C060E001C061E0F6
:1050000081E10E94D103C80195958795892B11F004
:105010005D9801C05D9A42E050E06EE170E08EE183
:1050200090E00E945F0D8091B603882309F4B8CF09
:105030001092B60340E060E080E00E94DC140E9421
:10504000031580E00E94040D80E00E940E0D61E0D7
:1050500070E080E090E00E941C03209729F480918A
:1050600017010E94040D9CCFC130D10529F4809115
:1050700017010E940E0D94CFC230D10509F090CFD8
:105080004FEF6FEF8FEF0E94DC140E94031588CF63
:10509000ACE0B0E0EEE4F8E20C944C3648EC60E0B2
:1050A00080E00E94DC140E9403156CE271E080E055
:1050B00090E00E941C0340E068EC80E00E94DC1459
:1050C0000E9403156CE271E080E090E00E941C03F6
:1050D00040E060E088EC0E94DC140E9403156CE262
:1050E00071E080E090E00E941C0340E060E080E01E
:1050F0000E94DC140E940315209117012C878FEF6A
:105100008093170181E089831A821B8282E08C835D
:105110001D82CE0101960E94D11041E050E05F83D4
:105120004E8300E010E0212C312C812C912C540175
:10513000188619861A861B86412C512C32010E9432
:105140009F0FA3E1B0E0288539854A855B850E94E1
:1051500039366B017C01809162039091630397FF64
:1051600011C08091640390916503AA2797FDA095D3
:10517000BA2FA7019601281B390B4A0B5B0BCA01FA
:10518000B90109C0BC01882777FD8095982F6C0D67
:105190007D1D8E1D9F1D24E130E040E050E00E9407
:1051A000FE3569017A012887D986EA86FB86A3E164
:1051B000B0E0A50194010E94393620916603309138
:1051C00067034901AA2497FCA094BA2C37FF05C0B5
:1051D000681979098A099B0904C0680D791D8A1D1F
:1051E0009B1D24E130E040E050E00E94FE35490183
:1051F0005A013FEF431A530A630A730A45E1C41682
:1052000045E0D406E104F1043CF45DED851655E07B
:105210009506A104B1045CF0012B09F07FC0C10127
:10522000019663E070E00E94C8351C0177C001154B
:10523000110509F44CC084E1C81685E0D806E104E4
:10524000F10461F09CED891695E09906A104B10482
:1052500029F00150110901151105C9F12E813F8175
:10526000232BC1F4C301B20123E230E040E050E05F
:105270000E94FE35CA01B90128E030E040E050E06C
:105280000E94FE35161617061CF46430710531F0C5
:1052900040E006C032E02316310421F440911701AA
:1052A00060E011C041E02416310419F46091170147
:1052B00009C02114310429F48091170160E040E015
:1052C00003C060E040E080E00E94DC1407C040E0E2
:1052D00060E080E00E94DC1400E010E00E94031512
:1052E0000E94D21D882399F08091BD039091BE0346
:1052F000892B09F424CF8E819F8101968170992793
:105300009F838E831092BE031092BD0318CF9C859D
:10531000909317012C96E2E10C9468360EE110E0B0
:105320009DCFFF920F931F93CF93DF9340E060E0F8
:1053300080E00E94DC141092280310922903CFEF22
:10534000C0932A030E9403156AE070E080E090E0B9
:105350000E941C0340E060E080E00E94DC140E9498
:10536000031562E370E080E090E00E941C0340E0DF
:1053700060E080E00E94DC148091170110921F030E
:1053800080932003C09321030E9403156AE070E01C
:1053900080E090E00E941C0340E060E080E00E941A
:1053A000DC140E94031562E370E080E090E00E944C
:1053B0001C0340E060E080E00E94DC1410921603C1
:1053C000C0931703109218030E9403156AE070E05F
:1053D00080E090E00E941C0340E060E080E00E94DA
:1053E000DC140E94031562E370E080E090E00E940C
:1053F0001C0340E060E080E00E94DC14C0930D03D9
:10540000C0930E0310920F030E9403156AE070E030
:1054100080E090E00E941C0340E060E080E00E9499
:10542000DC140E94031562E370E080E090E00E94CB
:105430001C0340E060E080E00E94DC14C0930403A1
:1054400010920503109206030E9403156AE070E0B3
:1054500080E090E00E941C0340E060E080E00E9459
:10546000DC140E94031562E370E080E090E00E948B
:105470001C03F12CC6EED0E040E060E080E00E942A
:10548000DC1420E040E06FEF8F2D8F700E943E14FF
:1054900020E04FEF6FEF83E08F0D8F700E943E147E
:1054A00020E04FEF60E086E08F0D8F700E943E1489
:1054B0002FEF4FEF60E089E08F0D8F700E943E1458
:1054C0002FEF40E060E08CE08F0D8F700E943E1463
:1054D0000E94031500E010E00C171D070CF04EC0F1
:1054E000C130D10531F061E070E080E090E00E94D1
:1054F0001C030E94D21D882309F442C08091BD0381
:105500009091BE030097B9F1873292407CF01092DF
:10551000BE031092BD038091BD039091BE03892B01
:1055200031F50E94D21D8111F6CF2AC062E370E0EE
:1055300080E090E00E941C03CE019595879501962E
:10554000C80FD91FCE018B5F9109893F910548F49F
:1055500068EE73E080E090E00E941C03C8EED3E0A8
:1055600006C0C43F81E0D80714F0C1E0D0E010923B
:10557000BE031092BD030F5F1F4FAECFF3947CCFDD
:10558000CDB7DEB7E5E00C947536A9E0B0E0EBEC02
:10559000FAE20C944C3681E089831A821B8282E005
:1055A0008C831D82CE0101960E94D11088248A949A
:1055B000912C312CA12CB12C01E010E01E821F8215
:1055C00018861986EFE02E2E0E949F0FAFE1B0E003
:1055D0002E813F81488559850E943936C0906603E7
:1055E000D0906703EE24D7FCE094FE2C6C0D7D1D5B
:1055F0008E1D9F1D97FD05C0615F7F4F8F4F9F4F91
:1056000004C06F5071098109910920E230E040E047
:1056100050E00E94FE352E833F8348875987A701BB
:1056200096018E819F81A885B985281B390B4A0B6D
:105630005B0BA114B10409F04AC0A8E2B0E00E94DB
:1056400039366B017C0190E8C90E97E0D91EE11C48
:10565000F11CF7FC0DC0A1E0CA16AFE0DA06E104C8
:10566000F1044CF0C12C7FE0D72EE12CF12C03C0CB
:10567000C12CD12C760140E060E080E00E94DC1477
:105680004D2C5E2C6F2C772467FC7A948C9C9001B7
:1056900011249C9CA00111243C9CC0011124232FA7
:1056A000452F692F81E0840D0E943E14C0948C9C8C
:1056B000900111249C9CA00111243C9CC001112448
:1056C000232F452F692F842D0E943E143FC069016E
:1056D0007A0157FF08C0F094E094D094C094C11CA4
:1056E000D11CE11CF11CC501019704C0F594E7949D
:1056F000D794C7948A95D2F7B5E0CB1AD108E108C0
:10570000F10821E1C216D104E104F1042CF050E1CA
:10571000C52ED12CE12CF12C40E060E080E00E940D
:10572000DC14412C512C32014C145D046E047F04B6
:105730006CF4282D492D632D822D84190E943E146E
:105740008FEF481A580A680A780AEECF0E940315AC
:105750000E94D21D8823C9F18091C5039091C60390
:10576000892B59F0C501019666E070E00E94C835AA
:105770005C011092C6031092C5038091BD03909105
:10578000BE03892B09F420CF0F5F1F4F083011058E
:1057900014F001E010E0C80181709927382E31948F
:1057A000C80196958795A82FA1709A2E9194C8014B
:1057B0009695879596958795B82FB1708B2E819485
:1057C0001092BE031092BD03FFCE2996E2E10C9425
:1057D0006836ADE1B0E0EFEEFBE20C944C361D8A8A
:1057E0001E8A91E09F8B82E0888F898F888B998BAE
:1057F0009A8B8B8B1C8ACE0140960E94D110BE01E1
:105800006F5F7F4F81E00E94B40D8F81880F80937E
:10581000E702712C1D8E01E010E04BE7242E312CA5
:1058200050E8852E57E0952EA12CB12CC12CD12CFF
:1058300076010E949F0F0E94A21A0E94D21D882307
:1058400009F4F9C18091BD039091BE03892BD1F079
:105850002DE3220E311C0F5F07FD01E0BE016F5FDB
:105860007F4F802F0E94B40D8F81880F8093E702B5
:10587000013019F089858A3B71F71092BE031092AE
:10588000BD031D8E8091C5039091C603892B71F0D5
:105890001092C6031092C503812F90E0019663E039
:1058A00070E00E94C835182F10925D0380910D01A1
:1058B0008F3F09F07EC1772021F0CE0140960E94F3
:1058C000D11080915F03882319F08DE4280E311CDC
:1058D00010925F03113009F49BC020F0123009F4DC
:1058E00002C11CC180916103823041F420EFC20EDD
:1058F00029E4D21E22E0E21EF11C1BC08E3F41F4BF
:1059000080EFC81A89E4D80A82E0E80AF10811C0D9
:10591000813039F428EAC20E21E6D21EE11CF11CC6
:1059200008C08F3F31F488EAC81A81E6D80AE10836
:10593000F1081092610320916203309163034427C0
:1059400037FD4095542F2C0D3D1D4E1D5F1DA8E5C4
:10595000B2E00E94393629E532E040E050E00E9492
:10596000FE3569017A01CA01B90120EA3FE040E051
:1059700050E00E94FE35820E931EA41EB51EB7FE97
:105980001DC0A2EEBFEFA70196010E94473620E29C
:1059900030E040E050E00E94FE3569017A01812C40
:1059A000912C540124EFC21621E0D206E104F10447
:1059B0000CF03DC1C12CD12C760139C181148FE08E
:1059C0009806A104B1040CF4A9C0AEE1B0E0A701AF
:1059D00096010E94393620E230E040E050E00E941B
:1059E000FE35243F81E03807410551051CF420E0D5
:1059F00030E0A901CC24DD247601C21AD30AE40ADE
:105A0000F50A88248A943EE0932EA12CB12C0FC174
:105A100080916103823039F420E5C20E23ECD21E5E
:105A2000E11CF11C1AC08E3F39F480E5C81A83ECE2
:105A3000D80AE108F10811C0813039F428E9C20E12
:105A40002AE3D21EE11CF11C08C08F3F31F488E923
:105A5000C81A8AE3D80AE108F1081092610360E8E5
:105A600077E080E090E0681979098A099B0928E0CD
:105A700030E040E050E00E94FE35DA01C90120919B
:105A800062033091630337FF02C0295F3F4FA901D2
:105A900023E0559547952A95E1F79A01442737FD6C
:105AA0004095542F280F391F4A1F5B1F2C0D3D1D99
:105AB0004E1D5F1DA8E5B2E00E94393629E532E0AF
:105AC00040E050E00E94FE3569017A01CA01B90147
:105AD00020E931E040E050E00E94FE35820E931E46
